:100000000C942A000C9447000C9447000C94470071
:100010000C9447000C9447000C9447000C94470044
:100020000C9447000C9447000C9447000C94470034
:100030000C9447000C9447000C9447000C94470024
:100040000C9447000C9447000C9447000C94470014
:100050000C94470011241FBECFE5D8E0DEBFCDBF12
:1000600013E0A0E6B0E0E0E5FAE502C005900D92ED
:10007000AE34B107D9F713E0AEE4B3E001C01D928E
:10008000A737B107E1F70E9475070C94262D0C9451
:100090000000EF92FF920F931F937B018C0120E0F1
:1000A00030E040E05FE40E94F50388238CF0C80153
:1000B000B70120E030E040E05FE40E94C1010E940F
:1000C000B3049B01AC01205030404040504806C072
:1000D000C801B7010E94B3049B01AC01B901CA0178
:1000E0001F910F91FF90EF900895A0E0B0E0EBE733
:1000F000F0E00C946B28DC012B01FA019C9192300A
:1001000008F439C1EB018881823008F433C194309E
:1001100069F4843009F02FC111969C91119789815F
:10012000981709F428C1A4E3B2E025C1843009F48A
:1001300021C18230A9F4923009F01DC19A01AD01AC
:1001400088E0EA010990AE01E90109929E0181501F
:10015000C1F7E201898111969C918923818308C1AD
:10016000923009F407C112962D903C901397EB0141
:100170008A819B811496AD90BD90CD90DC901797AD
:10018000EC80FD800E811F819101281B390BB90184
:1001900037FF04C066277727621B730B6032710537
:1001A0000CF061C0121613066CF537014801062EDB
:1001B00004C096948794779467940A94D2F721E0C8
:1001C00030E040E050E004C0220F331F441F551FB1
:1001D0006A95D2F721503040404050402E213F21B7
:1001E00040235123211531054105510521F021E01E
:1001F00030E040E050E079018A01E628F72808293C
:1002000019293CC0232BD1F1260E371E350146019A
:10021000062E04C096948794779467940A94D2F734
:1002200021E030E040E050E004C0220F331F441FC3
:10023000551F6A95D2F721503040404050402A2146
:100240003B214C215D21211531054105510521F04E
:1002500021E030E040E050E059016A01A628B728CB
:10026000C828D9280BC0821593052CF01C01AA249C
:10027000BB24650103C0EE24FF24870111969C91E5
:10028000D20111968C91981709F445C0992339F041
:10029000A80197012A193B094C095D0906C0A6016E
:1002A00095012E193F09400B510B57FD08C01182D3
:1002B0003382228224833583468357831DC081E0A5
:1002C00081833382228288279927DC01821B930B4A
:1002D000A40BB50B84839583A683B7830DC0220F2F
:1002E000331F441F551F24833583468357838281E0
:1002F000938101979383828324813581468157813D
:10030000DA01C9010197A109B1098F5F9F4FAF4F72
:10031000BF4328F30BC0918333822282EA0CFB1C7B
:100320000C1D1D1DE482F5820683178383E0808304
:10033000248135814681578157FF1AC0C901AA27F8
:1003400097FDA095BA2F81709070A070B0705695EF
:10035000479537952795822B932BA42BB52B848318
:100360009583A683B7838281938101969383828349
:10037000DF0101C0D201CD01CDB7DEB7E2E10C94BF
:100380008728A0E2B0E0E7ECF1E00C9477286983DD
:100390007A838B839C832D833E834F835887E9E048
:1003A000EE2EF12CEC0EFD1ECE010196B7010E943F
:1003B000A4068E010F5E1F4FCE010596B8010E9464
:1003C000A4068A8991E089278A8BC701B801AE010A
:1003D000475E5F4F0E9475000E94CF05A096E6E041
:1003E0000C949328A0E2B0E0E8EFF1E00C947728B9
:1003F00069837A838B839C832D833E834F835887C5
:10040000F9E0EF2EF12CEC0EFD1ECE010196B701A6
:100410000E94A4068E010F5E1F4FCE010596B80103
:100420000E94A406C701B801AE01475E5F4F0E945B
:1004300075000E94CF05A096E6E00C949328A0E2F8
:10044000B0E0E5E2F2E00C946B2869837A838B8359
:100450009C832D833E834F835887CE010196BE0136
:10046000675F7F4F0E94A406CE010596BE016F5EB6
:100470007F4F0E94A4069985923088F08989823046
:10048000C8F0943019F4823051F404C0843029F457
:10049000923081F484E392E0C6C0923049F420E0C7
:1004A0009A858A89981321E02A87CE010996BBC0D4
:1004B000823049F420E09A858A89981321E02A8BBA
:1004C000CE014196B0C02D843E844F8458886D88FB
:1004D0007E888F88988CEE24FF248701AA24BB2471
:1004E000650140E050E060E070E0E0E0F0E0C10174
:1004F00081709070892BE9F0E60CF71C081D191D1E
:100500009A01AB012A0D3B1D4C1D5D1D80E090E062
:10051000A0E0B0E0E614F7040805190520F481E036
:1005200090E0A0E0B0E0BA01A901480F591F6A1F8E
:100530007B1FAA0CBB1CCC1CDD1C97FE08C081E0F5
:1005400090E0A0E0B0E0A82AB92ACA2ADB2A3196B6
:10055000E032F10549F0660C771C881C991C569412
:10056000479437942794C3CFFA85EA892B893C892D
:100570008B859C85280F391F2E5F3F4F17C0CA01FE
:1005800081709070892B61F016950795F794E79428
:1005900080E090E0A0E0B0E8E82AF92A0A2B1B2BC3
:1005A00076956795579547952F5F3F4F77FDE7CF36
:1005B0000CC0440F551F661F771F17FD4160EE0CDE
:1005C000FF1C001F111F21503040403090E05907A0
:1005D00090E0690790E4790760F32B8F3C8FDB0193
:1005E000CA018F779070A070B07080349105A1051A
:1005F000B10561F447FD0AC0E114F10401051105DC
:1006000029F0405C5F4F6F4F7F4F40781A8EFE1786
:1006100011F081E08A8F4D8F5E8F6F8F78A383E01A
:10062000898FCE0149960E94CF05A096E2E10C94F5
:100630008728A8E1B0E0EFE1F3E00C947328698328
:100640007A838B839C832D833E834F835887B9E0C5
:10065000EB2EF12CEC0EFD1ECE010196B7010E948F
:10066000A4068E010F5E1F4FCE010596B8010E94B1
:10067000A4062985223008F47EC03989323010F46E
:10068000B8017CC08A859A8989278A87243011F02D
:10069000223031F4231709F06EC064E372E06EC0BB
:1006A000343039F41D861E861F86188A1C861B86E8
:1006B00004C0323021F484E08987B7015FC02B8504
:1006C0003C858B899C89281B390B3C872B87ED84C3
:1006D000FE840F851889AD88BE88CF88D88CEA142F
:1006E000FB040C051D0540F4EE0CFF1C001F111F40
:1006F000215030403C872B8720E030E040E050E044
:1007000080E090E0A0E0B0E460E070E0EA14FB0478
:100710000C051D0540F0282B392B4A2B5B2BEA18C2
:10072000FB080C091D09B695A79597958795EE0CC2
:10073000FF1C001F111F6F5F7F4F6F31710531F775
:10074000DA01C9018F779070A070B0708034910584
:10075000A105B10561F427FD0AC0E114F10401050A
:10076000110529F0205C3F4F4F4F5F4F20782D87B8
:100770003E874F87588BBE01675F7F4FCB010E943A
:10078000CF056896EAE00C948F28A8E1B0E0EBEC86
:10079000F3E00C94772869837A838B839C832D8381
:1007A0003E834F83588789E0E82EF12CEC0EFD1E26
:1007B000CE010196B7010E94A4068E010F5E1F4F65
:1007C000CE010596B8010E94A4068985823040F0CA
:1007D0008989823028F0C701B8010E941C0701C036
:1007E0008FEF6896E6E00C949328A8E1B0E0EBEF79
:1007F000F3E00C94772869837A838B839C832D8321
:100800003E834F83588789E0E82EF12CEC0EFD1EC5
:10081000CE010196B7010E94A4068E010F5E1F4F04
:10082000CE010596B8010E94A4068985823040F069
:100830008989823028F0C701B8010E941C0701C0D5
:100840008FEF6896E6E00C949328A8E1B0E0EBE225
:10085000F4E00C94772869837A838B839C832D83BF
:100860003E834F83588789E0E82EF12CEC0EFD1E65
:10087000CE010196B7010E94A4068E010F5E1F4FA4
:10088000CE010596B8010E94A4068985823040F009
:100890008989823028F0C701B8010E941C0701C075
:1008A00081E06896E6E00C949328A8E0B0E0EBE5E0
:1008B000F4E00C9474289B01AC0183E08983DA0195
:1008C000C9018827B7FD83959927AA27BB27B82E8A
:1008D000211531054105510519F482E089833AC09B
:1008E0008823A9F0203080E0380780E0480780E8BE
:1008F000580729F460E070E080E09FEC30C0EE24FF
:10090000FF248701E21AF30A040B150B02C07901D8
:100910008A018EE1C82ED12CDC82CB82ED82FE8250
:100920000F831887C801B7010E9480050197181628
:10093000190684F4082E04C0EE0CFF1C001F111FC2
:100940000A94D2F7ED82FE820F831887C81AD90A5B
:10095000DC82CB82BA82CE0101960E94CF05289616
:10096000E9E00C949028ACE0B0E0E9EBF4E00C9402
:100970007B2869837A838B839C83CE010196BE0199
:100980006B5F7F4F0E94A4068D81823061F18230BF
:1009900050F1843021F48E81882351F12EC02F81B3
:1009A000388537FD20C06E812F3131051CF066235C
:1009B000F9F023C08EE190E0821B930B29853A85E4
:1009C0004B855C8504C056954795379527958A9544
:1009D000D2F76623B1F050954095309521953F4F61
:1009E0004F4F5F4F0EC020E030E040E050E009C0C4
:1009F0002FEF3FEF4FEF5FE704C020E030E040E033
:100A000050E8B901CA012C96E2E00C949728A8E0BE
:100A1000B0E0EDE0F5E00C9473287B018C016115EA
:100A200071058105910519F482E0898360C083E036
:100A300089838EE1C82ED12CDC82CB82ED82FE82AE
:100A40000F831887C801B7010E948005FC01319708
:100A5000F7FF3BC0222733272E1B3F0B57016801AE
:100A6000022E04C0D694C794B794A7940A94D2F7E0
:100A700040E050E060E070E081E090E0A0E0B0E0B5
:100A800004C0880F991FAA1FBB1F2A95D2F7019790
:100A9000A109B1098E219F21A023B1230097A105AF
:100AA000B10521F041E050E060E070E04A295B29A7
:100AB0006C297D294D835E836F8378878EE190E07A
:100AC0008E1B9F0B9C838B8312C0309781F00E2E60
:100AD00004C0EE0CFF1C001F111F0A94D2F7ED8218
:100AE000FE820F831887CE1ADF0ADC82CB821A823D
:100AF000CE0101960E94CF052896EAE00C948F283B
:100B0000EF92FF920F931F937B018C0180E0E81618
:100B100080E0F80681E0080780E0180788F48FEF8E
:100B2000E816F1040105110531F028F088E090E0A5
:100B3000A0E0B0E017C080E090E0A0E0B0E012C01C
:100B400080E0E81680E0F80680E0080781E01807FA
:100B500028F088E190E0A0E0B0E004C080E190E0FF
:100B6000A0E0B0E020E230E040E050E0281B390B8C
:100B70004A0B5B0B04C016950795F794E7948A958A
:100B8000D2F7F701E45CFD4F8081281B3109410950
:100B90005109C9011F910F91FF90EF900895DF92C5
:100BA000EF92FF920F931F93FC01E480F580068182
:100BB0001781D1808081823048F480E090E0A0E10C
:100BC000B0E0E82AF92A0A2B1B2BA5C0843009F4CF
:100BD0009FC0823021F4EE24FF24870105C0E11478
:100BE000F1040105110519F4E0E0F0E096C062811E
:100BF00073819FEF623879070CF05BC022E83FEF0A
:100C0000261B370B2A3131052CF020E030E040E084
:100C100050E02AC0B801A701022E04C0769567955E
:100C2000579547950A94D2F781E090E0A0E0B0E0B4
:100C300004C0880F991FAA1FBB1F2A95D2F70197DE
:100C4000A109B1098E219F21A023B1230097A105FD
:100C5000B10521F081E090E0A0E0B0E09A01AB01A5
:100C6000282B392B4A2B5B2BDA01C9018F77907027
:100C7000A070B07080349105A105B10539F427FF4B
:100C800009C0205C3F4F4F4F5F4F04C0215C3F4F76
:100C90004F4F5F4FE0E0F0E02030A0E03A07A0E0E7
:100CA0004A07A0E45A0710F0E1E0F0E079018A0178
:100CB00027C06038710564F5FB01E158FF4FD8018A
:100CC000C7018F779070A070B07080349105A10536
:100CD000B10539F4E7FE0DC080E490E0A0E0B0E09B
:100CE00004C08FE390E0A0E0B0E0E80EF91E0A1F18
:100CF0001B1F17FF05C016950795F794E7943196CB
:100D000087E016950795F794E7948A95D1F705C083
:100D1000EE24FF248701EFEFF0E06E2F6795662742
:100D20006795902F9F77D794DD24D7948E2F869543
:100D3000492F462B582F5D29B701CA011F910F91EA
:100D4000FF90EF90DF900895FC01DB01408151811D
:100D50002281622F6F7770E0221F2227221F93814A
:100D6000892F880F822B282F30E0991F9927991FF0
:100D700011969C93119721153105A9F5411551053F
:100D80006105710511F482E037C082E89FEF139688
:100D90009C938E9312979A01AB0167E0220F331F49
:100DA000441F551F6A95D1F783E08C930DC0220F25
:100DB000331F441F551F12968D919C9113970197D5
:100DC00013969C938E931297203080E0380780E032
:100DD000480780E4580758F314962D933D934D939C
:100DE0005C93179708952F3F310579F4411551050C
:100DF0006105710519F484E08C93089564FF03C0C4
:100E000081E08C9312C01C9210C02F573040139673
:100E10003C932E93129783E08C9387E0440F551FE9
:100E2000661F771F8A95D1F7706414964D935D9372
:100E30006D937C93179708951F93DC01FB019C91A0
:100E4000923008F447C08081823008F443C0943067
:100E500051F411961C91843099F58181682F70E0CE
:100E6000611B71093FC0843021F0923031F482302F
:100E7000B9F18181882389F12DC011961C911197B8
:100E80008230F1F081811817D9F412962D913C919E
:100E90001397828193818217930794F0281739075B
:100EA000BCF014968D919D910D90BC91A02D248144
:100EB000358146815781281739074A075B0718F49F
:100EC000112341F00AC082179307A407B50740F425
:100ED000112319F061E070E005C06FEF7FEF02C0F1
:100EE00060E070E0CB011F910895DF93CF93CDB701
:100EF000DEB70E947E070E94AE07FDCFDF93CF933F
:100F0000CDB7DEB70E94D31C0E949C110E947216BE
:100F10000E94C8180E9478180E945A1C0E94A810AB
:100F200080E00E94771B0E943E0C0E9410100E94DD
:100F30007F0B80935E0380E690E00E94A21880E021
:100F400060E00E94451682E790E00E94E01581E093
:100F500060E00E944516CF91DF910895DF93CF9313
:100F6000CDB7DEB729970FB6F894DEBF0FBECDBF61
:100F7000198280915E03813309F061C00E94991843
:100F800089838981282F30E039872887888599854A
:100F90008433910589F1288539852533310584F419
:100FA0008885998582339105F9F028853985233321
:100FB0003105F4F4888599858133910589F0A2C0C3
:100FC0002885398526333105F9F08885998586335A
:100FD0009105B4F0288539852733310569F192C030
:100FE00080E00E944F108EC081E00E944F108AC0A6
:100FF00082E00E944F1086C083E00E944F1082C0A2
:1010000084E00E944F107EC083E890E00E94A21806
:1010100081E693E064E00E94B31881E693E09E01CC
:101020002E5F3F4FB9014AE050E00E94A228DC0148
:10103000CB010E94981066C00E94690D63C00E9497
:10104000DB1689838981282F30E03F832E838E81B0
:101050009F818333910541F12E813F8124333105F6
:101060005CF48E819F8181339105B1F02E813F81A7
:1010700022333105A9F046C08E819F8185339105C9
:10108000D9F02E813F812533310594F08E819F81E7
:1010900086339105A9F036C080E00E944F1032C01F
:1010A00081E00E944F102EC082E00E944F102AC0A3
:1010B00083E00E944F1026C084E00E944F1022C09F
:1010C00081E060E00E94451680EA90E00E94E01511
:1010D00081E693E064E00E942D1881E693E09E0192
:1010E0002C5F3F4FB9014AE050E00E94A228DC018A
:1010F000CB010E94981081E00E941A1681E060E006
:101100000E94451619820E94B6108D3128F080E0A9
:1011100060E00E94BC1B07C00E94B610853118F425
:1011200080E00E94331C29960FB6F894DEBF0FBEF4
:10113000CDBFCF91DF910895DF93CF93CDB7DEB7C9
:101140000E94661C81EB90E00E94A21880E00E9441
:101150001A1681E00E941A1680E060E00E9445168F
:1011600086ED90E00E94E0150E94C81CCF91DF91AF
:101170000895DF93CF93CDB7DEB780E090E00E9473
:101180007123CF91DF910895DF93CF93CDB7DEB771
:1011900066970FB6F894DEBF0FBECDBF9D8B8C8BCC
:1011A0000E94B9088B8388E18A83198243C08A81AF
:1011B000882F90E09E012C5F3F4FB90148E00E94CC
:1011C000B6238A81882F90E008969E01245F3F4FC6
:1011D000B90148E00E94B6238C899D899E012C5F4D
:1011E0003F4FB9010E94E2290097F1F48C899D8953
:1011F00008969E01245F3F4FB9010E94E2290097A3
:1012000099F485E693E09E012C5F3F4FB9010E945F
:10121000EB298DE693E09E01245F3F4FB9010E94C8
:10122000EB298A818E8B0DC08A81805F8A838981B8
:101230008F5F898399818B81981708F4B8CF8FEFDE
:101240008E8B8E8966960FB6F894DEBF0FBECDBF2B
:10125000CF91DF910895DF93CF93CDB7DEB7ED97B0
:101260000FB6F894DEBF0FBECDBF98AF8FAB86EE42
:1012700090E00E94A218CE01019669E00E94B31886
:10128000CE0101960E94F2298930910550F18DB767
:101290009EB708970FB6F8949EBF0FBE8DBFEDB7EF
:1012A000FEB73196CE0143969183808384E190E02E
:1012B0009383828389EF90E09583848388E090E034
:1012C000978386830E94FB29EDB7FEB738960FB649
:1012D000F894FEBF0FBEEDBFCE0143960E94A21848
:1012E000C6CF8DE091E00E94A218CE010A9669E077
:1012F0000E94B318CE010A960E94F2298930910506
:1013000070F18DB79EB708970FB6F8949EBF0FBEC9
:101310008DBFEDB7FEB73196CE01439691838083A2
:1013200084E190E09383828380E291E095838483DB
:1013300088E090E0978386830E94FB29EDB7FEB793
:1013400038960FB6F894FEBF0FBEEDBFCE014396A0
:101350000E94A21885E391E00E94A218C2CFCE019C
:1013600087969E012F5F3F4FB9010E94EB29CE0166
:10137000879608969E01265F3F4FB9010E94EB2990
:101380008FA998AD9AAF89AFFE01B796FCAFEBAFCE
:10139000F0E1FDAFEBADFCAD00808BAD9CAD0196F7
:1013A0009CAF8BAFE9ADFAAD008289AD9AAD0196E5
:1013B0009AAF89AF9DAD91509DAFEDADEE2351F742
:1013C0008FA998ADED960FB6F894DEBF0FBECDBFD6
:1013D000CF91DF910895DF93CF93CDB7DEB76297BA
:1013E0000FB6F894DEBF0FBECDBF0E94B9088A8346
:1013F0008A81882F90E082959295907F9827807FB0
:101400009827885E8983CE0103960E942B098981E3
:10141000882F90E09E012D5F3F4FB9010E948123EC
:101420008981882F90E00896AC01CE0103969C013B
:10143000285F3F4FCA01B9010E9481238A81882F0A
:1014400090E001969C0180E090E0B9010E945A234F
:1014500087E391E00E94A21881E062960FB6F894AB
:10146000DEBF0FBECDBFCF91DF910895DF93CF9345
:10147000CDB7DEB764970FB6F894DEBF0FBECDBF11
:101480000E94B9088B838B81882331F480E591E039
:101490000E94A2181C8A61C0CE0104960E942B09EA
:1014A000CE0104960E94C4088A838A818F3F31F45A
:1014B00082E791E00E94A2181C8A4FC08B81882F7E
:1014C00090E0880F991F0196880F991F880F991F28
:1014D000880F991F89838981882F90E09E012C5F56
:1014E0003F4FB90148E00E94B6238981882F90E0E0
:1014F0000896AC01CE0104969C01285F3F4FCA01BB
:10150000B90148E00E94B6238A81992787FD90950A
:101510009E012C5F3F4FB9010E9481238A81992748
:1015200087FD90950896AC01CE0104969C01285F3A
:101530003F4FCA01B9010E9481238B81882F90E01F
:1015400001979C0180E090E0B9010E945A2383E852
:1015500091E00E94A21881E08C8B8C8964960FB672
:10156000F894DEBF0FBECDBFCF91DF910895DF931A
:10157000CF93CDB7DEB76E970FB6F894DEBF0FBE30
:10158000CDBF81E08A8381E089831B821C821D821A
:101590001E8283E0FE013796DF01982F1D929A95F7
:1015A000E9F78EE991E00E94A218CE01039667E068
:1015B0000E94B318CE01039627EC31E0B9010E94D6
:1015C000E229009719F40E94360A4EC0CE01039614
:1015D0002EEC31E0B9010E94E229009719F40E9433
:1015E000EB0942C0CE01039622ED31E0B9010E9421
:1015F000E2290097A9F5CE010A960E942B09CE0197
:101600000A960E94C4088F3F09F1A5E6B3E0BB8F9C
:10161000AA8FFE013A96FD8FEC8FF0E1FE8FAC8D24
:10162000BD8D0C90EC8DFD8D3196FD8FEC8FAA8DCC
:10163000BB8D0C92EA8DFB8D3196FB8FEA8FFE8D70
:10164000F150FE8F8E8D882351F718C08A81833028
:1016500018F00E949C0808C08A818F5F8A8304C0AA
:1016600088ED91E00E94A218CE01039629EE31E0A8
:10167000B90141E050E00E94D92997CF6E960FB68C
:10168000F894DEBF0FBECDBFCF91DF910895DF93F9
:10169000CF93CDB7DEB765970FB6F894DEBF0FBE18
:1016A000CDBF81E08A8319821CC08AEE91E00E943E
:1016B000E015CE01069668E00E942D188CEF91E0AF
:1016C0000E94E015CE010696089668E00E942D184B
:1016D000CE0106960E94C408882341F48A818F5F58
:1016E0008A838A81833009F70E949C0865960FB629
:1016F000F894DEBF0FBECDBFCF91DF910895DF9389
:10170000CF93CDB7DEB762970FB6F894DEBF0FBEAA
:10171000CDBF8EE092E00E94E01581E060E00E9483
:10172000451680E292E00E94E015198A8FEF888BBF
:101730001F860E94DB16888B80E090E0A0EAB0E470
:101740008B879C87AD87BE876B857C858D859E85C5
:1017500020E030E04AE755E40E941F02DC01CB01A3
:101760008F839887A987BA876F81788589859A85BD
:1017700020E030E040E85FE30E94250488232CF459
:1017800081E090E09E838D833FC06F81788589855D
:101790009A8520E03FEF4FE757E40E94C5031816F3
:1017A0004CF56B857C858D859E8520E030E040E2A0
:1017B00051E40E941F02DC01CB01BC01CD010E945B
:1017C0004900DC01CB019E838D830FC080E991E04D
:1017D0009C838B838B819C810197F1F79C838B8306
:1017E0008D819E8101979E838D838D819E8100973F
:1017F00069F714C06F81788589859A850E944900B0
:10180000DC01CB019E838D838D819E819A838983A8
:1018100089819A810197F1F79A83898388898F3F1B
:1018200019F082E3898B0AC08F85882319F081E340
:10183000898B04C00E9499188F877BCF80E00E941B
:101840001A1681E00E941A1680E060E00E94451698
:101850008989813329F40E94B70A81E38A8B04C005
:101860000E94470B82E38A8B8A8962960FB6F894AE
:10187000DEBF0FBECDBFCF91DF910895DF93CF9331
:10188000CDB7DEB70E947B0DCF91DF910895DF9336
:10189000CF93CDB7DEB72E970FB6F894DEBF0FBE4D
:1018A000CDBF0E94890D8AE50E949C0D80E090E0EA
:1018B000A0E2B1E48B879C87AD87BE876B857C8572
:1018C0008D859E8520E030E04AE755E40E941F02A6
:1018D000DC01CB018F839887A987BA876F817885D0
:1018E00089859A8520E030E040E85FE30E94250486
:1018F00088232CF481E090E09E838D833FC06F812C
:10190000788589859A8520E03FEF4FE757E40E946C
:10191000C50318164CF56B857C858D859E8520E06A
:1019200030E040E251E40E941F02DC01CB01BC0127
:10193000CD010E944900DC01CB019E838D830FC045
:1019400080E991E09C838B838B819C810197F1F7E7
:101950009C838B838D819E8101979E838D838D8156
:101960009E81009769F714C06F81788589859A8573
:101970000E944900DC01CB019E838D838D819E8175
:101980009A83898389819A810197F1F79A83898360
:101990000E94930D81E090E090934F0380934E035B
:1019A0002E960FB6F894DEBF0FBECDBFCF91DF915C
:1019B0000895DF93CF93CDB7DEB72E970FB6F89487
:1019C000DEBF0FBECDBF0E94890D80E00E949C0D3E
:1019D00080E090E0A0E2B1E48B879C87AD87BE8772
:1019E0006B857C858D859E8520E030E04AE755E457
:1019F0000E941F02DC01CB018F839887A987BA87D9
:101A00006F81788589859A8520E030E040E85FE342
:101A10000E94250488232CF481E090E09E838D832E
:101A20003FC06F81788589859A8520E03FEF4FE739
:101A300057E40E94C50318164CF56B857C858D858F
:101A40009E8520E030E040E251E40E941F02DC016C
:101A5000CB01BC01CD010E944900DC01CB019E837A
:101A60008D830FC080E991E09C838B838B819C8167
:101A70000197F1F79C838B838D819E8101979E83D3
:101A80008D838D819E81009769F714C06F81788561
:101A900089859A850E944900DC01CB019E838D8354
:101AA0008D819E819A83898389819A810197F1F73B
:101AB0009A8389830E94930D10924F0310924E03D4
:101AC0002E960FB6F894DEBF0FBECDBFCF91DF913B
:101AD0000895DF93CF93CDB7DEB780914E039091F9
:101AE0004F03009719F00E94D90C02C00E94470CC6
:101AF000CF91DF910895DF93CF93CDB7DEB783E029
:101B00000E94611F82E390E00E94D01FCF91DF917D
:101B10000895DF93CF93CDB7DEB784E00E94751FA1
:101B2000CF91DF910895DF93CF93CDB7DEB70E94B9
:101B3000891FCF91DF910895DF93CF93CDB7DEB7A3
:101B40002D970FB6F894DEBF0FBECDBF8D878D8564
:101B5000853B08F045C08D85882F90E0AA2797FD2A
:101B6000A095BA2FBC01CD010E945504DC01CB0128
:101B7000BC01CD0120E030E044E353E40E941903AE
:101B8000DC01CB0189879A87AB87BC878CE990E51C
:101B9000A8E0BAE38D839E83AF83B88769857A8591
:101BA0008B859C8526E53AE646EF5AE30E941F02A4
:101BB000DC01CB01BC01CD012D813E814F815885D7
:101BC0000E94F201DC01CB0189839A83AB83BC8341
:101BD00089819A81AB81BC81BC01CD010E94971F94
:101BE0002D960FB6F894DEBF0FBECDBFCF91DF911B
:101BF0000895DF93CF93CDB7DEB781E061E041E098
:101C00000E948E2481E062E041E00E948E2481E007
:101C100063E041E00E948E2480E064E041E00E94A5
:101C20008E2480E065E041E00E948E2480E066E042
:101C300041E00E948E2480E067E041E00E948E2413
:101C4000CF91DF910895DF93CF93CDB7DEB7E397C0
:101C50000FB6F894DEBF0FBECDBF8BAB03C08BA910
:101C600084568BAB8BA98436D0F78BA99AE0692F69
:101C70000E9438289AE0692F0E943828892F82957F
:101C8000807F8AAB8BA99AE0692F0E943828892F20
:101C90008295807F89AB81E062E041E00E947125FE
:101CA00081E061E040E00E94712580E06AA94FE098
:101CB0000E94542680E090E0AAEFB3E48DA79EA78F
:101CC000AFA7B8AB6DA57EA58FA598A92BEA3AEA78
:101CD0004AEA50E40E941F02DC01CB0189A79AA7BF
:101CE000ABA7BCA769A57AA58BA59CA520E030E091
:101CF00040E85FE30E94250488231CF481E088A764
:101D000091C069A57AA58BA59CA520E030E04FE79E
:101D100053E40E94C50318160CF07BC06DA57EA588
:101D20008FA598A920E030E04AE754E40E94190307
:101D3000DC01CB018CA39DA3AEA3BFA36CA17DA1AD
:101D40008EA19FA120E030E04AE755E40E941F02E7
:101D5000DC01CB0188A399A3AAA3BBA368A179A1A5
:101D60008AA19BA120E030E040E85FE30E942504C7
:101D700088232CF481E090E09F8F8E8F3FC068A174
:101D800079A18AA19BA120E03FEF4FE757E40E9491
:101D9000C50318164CF56CA17DA18EA19FA120E072
:101DA00030E040E251E40E941F02DC01CB01BC01A3
:101DB000CD010E944900DC01CB019F8F8E8F0FC0A7
:101DC00080E991E09D8F8C8F8C8D9D8D0197F1F72F
:101DD0009D8F8C8F8E8D9F8D01979F8F8E8F8E8D77
:101DE0009F8D009769F724C068A179A18AA19BA162
:101DF0000E944900DC01CB019F8F8E8F8E8D9F8DBD
:101E00009B8F8A8F8A8D9B8D0197F1F79B8F8A8F8D
:101E10000FC069A57AA58BA59CA50E944900DC018D
:101E2000CB0188A788A5898F898D8A95F1F7898F3D
:101E300081E062E040E00E94712581E061E041E0E4
:101E40000E94712580E069A94FE00E94542680E03D
:101E500090E0AAEFB3E48D8B9E8BAF8BB88F6D892A
:101E60007E898F89988D2BEA3AEA4AEA50E40E94EB
:101E70001F02DC01CB01898B9A8BAB8BBC8B6989F0
:101E80007A898B899C8920E030E040E85FE30E94FA
:101E9000250488231CF481E0888B91C069897A89A4
:101EA0008B899C8920E030E04FE753E40E94C50312
:101EB00018160CF07BC06D897E898F89988D20E083
:101EC00030E04AE754E40E941903DC01CB018C871F
:101ED0009D87AE87BF876C857D858E859F8520E039
:101EE00030E04AE755E40E941F02DC01CB018887FD
:101EF0009987AA87BB87688579858A859B8520E035
:101F000030E040E85FE30E94250488232CF481E060
:101F100090E09F838E833FC0688579858A859B8505
:101F200020E03FEF4FE757E40E94C50318164CF539
:101F30006C857D858E859F8520E030E040E251E410
:101F40000E941F02DC01CB01BC01CD010E944900AF
:101F5000DC01CB019F838E830FC080E991E09D83DC
:101F60008C838C819D810197F1F79D838C838E8179
:101F70009F8101979F838E838E819F81009769F750
:101F800024C0688579858A859B850E944900DC018B
:101F9000CB019F838E838E819F819B838A838A81DD
:101FA0009B810197F1F79B838A830FC069897A89A6
:101FB0008B899C890E944900DC01CB01888B888930
:101FC000898389818A95F1F78983E3960FB6F8941E
:101FD000DEBF0FBECDBFCF91DF910895DF93CF93CA
:101FE00000D000D0CDB7DEB78B836C831A82198204
:101FF00008C08B810E94230E89819A8101969A8361
:1020000089838C81282F30E089819A8182179307F8
:1020100080F30F900F900F900F90CF91DF91089564
:10202000DF93CF93CDB7DEB780E061E041E00E945F
:102030008E2480E062E041E00E948E2481E060E036
:1020400041E00E948E2482E062E041E00E948E2402
:1020500083E066E041E00E948E2480E061E040E0A1
:102060000E94712580E062E040E00E94712581E0DD
:1020700060E040E00E94712582E062E040E00E9462
:10208000712583E066E040E00E94712583E00E94B4
:10209000521E84E00E94CB1ECF91DF910895DF9302
:1020A000CF9300D00F92CDB7DEB789838981282FD7
:1020B00030E03B832A838A819B818230910521F124
:1020C0002A813B812330310554F48A819B8100971A
:1020D00089F02A813B812130310589F023C08A8132
:1020E0009B8183309105A9F02A813B812430310501
:1020F000A9F018C080E061E00E942A2713C080E0A8
:1021000062E00E942A270EC081E060E00E942A2738
:1021100009C082E062E00E942A2704C083E066E0F2
:102120000E942A270F900F900F90CF91DF91089572
:10213000DF93CF930F92CDB7DEB789838981853640
:1021400018F489810E940E1F0F90CF91DF9108959E
:10215000DF93CF93CDB7DEB780E060E040E00E9430
:102160008E240E94A727CF91DF910895DF93CF930C
:1021700000D000D00F92CDB7DEB780E00E94C32719
:10218000DC01CB01BC01CD0120E030E04AE754E4A2
:102190000E941F02DC01CB018A839B83AC83BD8339
:1021A0006A817B818C819D8120E030E040E251E4B6
:1021B0000E941903DC01CB01BC01CD0120E030E01D
:1021C00040E85FE30E94F201DC01CB01BC01CD01DC
:1021D0000E944900DC01CB01898389810F900F9017
:1021E0000F900F900F90CF91DF910895DF93CF93D1
:1021F000CDB7DEB782E062E041E00E948E2482E04B
:1022000067E041E00E948E2483E063E041E00E94A9
:102210008E24CF91DF910895DF93CF9300D00F925A
:10222000CDB7DEB789838981282F30E03B832A83AD
:102230008A819B818130910579F02A813B8122300E
:10224000310581F08A819B81009789F482E062E008
:1022500041E00E9471250BC082E067E041E00E94EE
:10226000712505C083E063E041E00E9471250F9075
:102270000F900F90CF91DF910895DF93CF9300D00F
:102280000F92CDB7DEB789838981282F30E03B8359
:102290002A838A819B818130910579F02A813B8153
:1022A0002230310581F08A819B81009789F482E098
:1022B00062E040E00E9471250BC082E067E040E0F0
:1022C0000E94712505C083E063E040E00E94712513
:1022D0000F900F900F90CF91DF910895DF93CF93E0
:1022E00000D00F92CDB7DEB789838981282F30E0E7
:1022F0003B832A838A819B818130910571F02A81F9
:102300003B812230310571F08A819B81009771F405
:1023100082E062E00E942A2709C082E067E00E9412
:102320002A2704C083E063E00E942A270F900F90C1
:102330000F90CF91DF910895DF93CF93CDB7DEB7A4
:10234000E4970FB6F894DEBF0FBECDBF81E061E029
:1023500041E00E948E2481E062E041E00E948E24F0
:1023600081E063E041E00E948E2480E064E041E08F
:102370000E948E2480E065E041E00E948E2480E08F
:1023800066E041E00E948E2480E067E041E00E9428
:102390008E2481E062E040E00E94712580E090E0C0
:1023A000A0E7B1E489AB9AABABABBCAB69A97AA9A6
:1023B0008BA99CA920E030E04AE755E40E941F0267
:1023C000DC01CB018DA79EA7AFA7B8AB6DA57EA5FD
:1023D0008FA598A920E030E040E85FE30E94250443
:1023E00088232CF481E090E09CA78BA73FC06DA5CB
:1023F0007EA58FA598A920E03FEF4FE757E40E9404
:10240000C50318164CF569A97AA98BA99CA920E0E7
:1024100030E040E251E40E941F02DC01CB01BC012C
:10242000CD010E944900DC01CB019CA78BA70FC006
:1024300080E991E09AA789A789A59AA50197F1F764
:102440009AA789A78BA59CA501979CA78BA78BA56D
:102450009CA5009769F714C06DA57EA58FA598A9C6
:102460000E944900DC01CB019CA78BA78BA59CA5F2
:1024700098A78FA38FA198A50197F1F798A78FA38D
:1024800083E00E94081680E090E0A0EAB0E48BA30D
:102490009CA3ADA3BEA36BA17CA18DA19EA120E0B6
:1024A00030E04AE755E40E941F02DC01CB018F8F28
:1024B00098A3A9A3BAA36F8D78A189A19AA120E0BE
:1024C00030E040E85FE30E94250488232CF481E09B
:1024D00090E09E8F8D8F3FC06F8D78A189A19AA1CA
:1024E00020E03FEF4FE757E40E94C50318164CF574
:1024F0006BA17CA18DA19EA120E030E040E251E4DF
:102500000E941F02DC01CB01BC01CD010E944900E9
:10251000DC01CB019E8F8D8F0FC080E991E09C8FF5
:102520008B8F8B8D9C8D0197F1F79C8F8B8F8D8D71
:102530009E8D01979E8F8D8F8D8D9E8D009769F753
:1025400014C06F8D78A189A19AA10E944900DC0175
:10255000CB019E8F8D8F8D8D9E8D9A8F898F898DCA
:102560009A8D0197F1F79A8F898F83E00E94081660
:1025700080E090E0A8ECB2E48D8B9E8BAF8BB88F9F
:102580006D897E898F89988D2BEA3AEA4AEA50E470
:102590000E941F02DC01CB01898B9A8BAB8BBC8B19
:1025A00069897A898B899C8920E030E040E85FE383
:1025B0000E94250488231CF481E0888B91C06989DE
:1025C0007A898B899C8920E030E04FE753E40E94B0
:1025D000C50318160CF07BC06D897E898F89988D94
:1025E00020E030E04AE754E40E941903DC01CB010B
:1025F0008C879D87AE87BF876C857D858E859F85FF
:1026000020E030E04AE755E40E941F02DC01CB01E4
:1026100088879987AA87BB87688579858A859B85FE
:1026200020E030E040E85FE30E94250488232CF49A
:1026300081E090E09F838E833FC0688579858A859D
:102640009B8520E03FEF4FE757E40E94C503181633
:102650004CF56C857D858E859F8520E030E040E2DD
:1026600051E40E941F02DC01CB01BC01CD010E949C
:102670004900DC01CB019F838E830FC080E991E08C
:102680009D838C838C819D810197F1F79D838C8341
:102690008E819F8101979F838E838E819F8100977A
:1026A00069F724C0688579858A859B850E944900E1
:1026B000DC01CB019F838E838E819F819B838A83E4
:1026C0008A819B810197F1F79B838A830FC0698977
:1026D0007A898B899C890E944900DC01CB01888B17
:1026E0008889898389818A95F1F7898383E00E94AB
:1026F000081682E00E94081688E20E94081681E00F
:102700000E9408168FE00E940816E4960FB6F8940F
:10271000DEBF0FBECDBFCF91DF910895DF93CF9382
:10272000CDB7DEB72E970FB6F894DEBF0FBECDBF84
:1027300081E063E041E00E94712580E090E0A0E04C
:10274000B0E48B879C87AD87BE876B857C858D8544
:102750009E8520E030E04AE755E40E941F02DC013C
:10276000CB018F839887A987BA876F817885898500
:102770009A8520E030E040E85FE30E94250488234A
:102780002CF481E090E09E838D833FC06F8178853B
:1027900089859A8520E03FEF4FE757E40E94C50303
:1027A00018164CF56B857C858D859E8520E030E084
:1027B00040E251E40E941F02DC01CB01BC01CD01CB
:1027C0000E944900DC01CB019E838D830FC080E90C
:1027D00091E09C838B838B819C810197F1F79C8393
:1027E0008B838D819E8101979E838D838D819E81B8
:1027F000009769F714C06F81788589859A850E9452
:102800004900DC01CB019E838D838D819E819A835B
:10281000898389819A810197F1F79A83898381E07D
:1028200063E040E00E9471252E960FB6F894DEBF5B
:102830000FBECDBFCF91DF910895DF93CF9300D02E
:102840000F92CDB7DEB78B838B81807F8A838B819C
:102850008295807F898380E06A814FE00E945426C0
:102860000E948E1380E069814FE00E9454260E94EE
:102870008E130F900F900F90CF91DF910895DF93FB
:10288000CF930F92CDB7DEB789838981882369F012
:1028900081E061E041E00E94712589810E941D1460
:1028A000809151038F5F809351030F90CF91DF91FF
:1028B0000895DF93CF93CDB7DEB7C856D0400FB69B
:1028C000F894DEBF0FBECDBFFE01EB59FF4F608312
:1028D0007183828393838DB79EB708970FB6F89460
:1028E0009EBF0FBE8DBF2DB73EB72F5F3F4FCE01AE
:1028F0000196F9019183808381E392E0F90193834A
:102900008283FE01EB59FF4F80819181A281B381C7
:10291000F90184839583A683B7830E942C2A8DB7FF
:102920009EB708960FB6F8949EBF0FBE8DBFCE011E
:10293000019660E040E00E940415C859DF4F0FB6D1
:10294000F894DEBF0FBECDBFCF91DF910895DF9326
:10295000CF9300D000D00F92CDB7DEB76A837B83D0
:102960008C839D836A817B818C819D810E9449003B
:10297000DC01CB0189838981882F90E0A0E0B0E061
:10298000BC01CD010E9459148EE20E943F1489813E
:10299000882F90E0AA2797FDA095BA2FBC01CD0102
:1029A0000E9455049B01AC016A817B818C819D81D1
:1029B0000E94C101DC01CB018A839B83AC83BD8370
:1029C0006A817B818C819D8120E030E048EC52E47B
:1029D0000E941F02DC01CB018A839B83AC83BD83F1
:1029E0006A817B818C819D810E944900DC01CB0141
:1029F000BC01CD010E9459140F900F900F900F90C1
:102A00000F90CF91DF910895DF93CF93CDB7DEB7CD
:102A100067970FB6F894DEBF0FBECDBF9B8B8A8B36
:102A20006C8B4D8B8A899B890E94F229898B8D89B9
:102A3000882391F180913C03282F30E03F8B2E8B2F
:102A40008E899F898230910581F02E893F892330BC
:102A50003105C9F08E899F8981309105E9F4809113
:102A6000500360E00E94451617C0209150038989E9
:102A7000982F969588E0382F391B932F822F692F36
:102A80000E94451609C02091500390E18989981B46
:102A9000822F692F0E9445168A899B89988B8F8780
:102AA00080C0EF85F88980810E943F148C89813035
:102AB00009F072C080E090E0A8ECB2E48B879C87BC
:102AC000AD87BE876B857C858D859E8520E030E057
:102AD0004AE755E40E941F02DC01CB018F839887EF
:102AE000A987BA876F81788589859A8520E030E04B
:102AF00040E85FE30E94250488232CF481E090E005
:102B00009E838D833FC06F81788589859A8520E07B
:102B10003FEF4FE757E40E94C50318164CF56B854D
:102B20007C858D859E8520E030E040E251E40E9466
:102B30001F02DC01CB01BC01CD010E944900DC0178
:102B4000CB019E838D830FC080E991E09C838B83B2
:102B50008B819C810197F1F79C838B838D819E8172
:102B600001979E838D838D819E81009769F714C0A4
:102B70006F81788589859A850E944900DC01CB01A7
:102B80009E838D838D819E819A83898389819A8199
:102B90000197F1F79A8389838F8598890196988B9D
:102BA0008F87EF85F8898081882309F07ACF67962F
:102BB0000FB6F894DEBF0FBECDBFCF91DF91089561
:102BC000DF93CF9300D0CDB7DEB79A83898320916E
:102BD0003C0389819A8160E0422F0E9404150F9086
:102BE0000F90CF91DF910895DF93CF9300D0CDB7B1
:102BF000DEB79A83898320913C0389819A8161E0C1
:102C0000422F0E9404150F900F90CF91DF910895ED
:102C1000DF93CF930F92CDB7DEB7898381E061E078
:102C200040E00E94712589810E941D140F90CF9170
:102C3000DF910895DF93CF9300D0CDB7DEB78A83BD
:102C40008A8160E00E944516198206C080E20E94D7
:102C50003F1489818F5F898389818031B8F38A81AC
:102C600060E00E9445160F900F90CF91DF9108957C
:102C7000DF93CF930F92CDB7DEB78983898180939D
:102C80003C030F90CF91DF910895DF93CF9300D055
:102C900000D0CDB7DEB789836A838981282F30E0E1
:102CA0003C832B838B819C81009731F02B813C816D
:102CB0002130310549F00FC08981809350038A810A
:102CC00080580E94081607C08981809350038A812A
:102CD00080540E9408160F900F900F900F90CF9184
:102CE000DF910895DF93CF93CDB7DEB782E063E045
:102CF00040E00E948E2482E064E040E00E948E2446
:102D000082E065E040E00E948E2482E066E040E0E0
:102D10000E948E2481E064E041E00E948E2481E0E4
:102D200065E041E00E948E2481E066E041E00E947F
:102D30008E2481E067E041E00E948E2481E064E01F
:102D400041E00E94712581E065E041E00E9471252B
:102D500081E066E041E00E94712581E067E041E0AA
:102D60000E947125CF91DF910895DF93CF930F9249
:102D7000CDB7DEB782E063E00E94B026882391F4ED
:102D800082E064E00E94B026882361F482E065E07E
:102D90000E94B026882331F482E066E00E94B026CB
:102DA000882319F081E0898301C0198289810F90FD
:102DB000CF91DF910895DF93CF93CDB7DEB76197C1
:102DC0000FB6F894DEBF0FBECDBF8FEF888B8FEFAD
:102DD0008F870E949117888B88898F3F19F48FEF16
:102DE000898B95C088890E94C0178F8788898F3FFB
:102DF00019F08F858F3F19F48FEF898B88C00E945F
:102E0000B5168130E1F380E090E0A0EAB0E48B8772
:102E10009C87AD87BE876B857C858D859E8520E0F0
:102E200030E04AE755E40E941F02DC01CB018F83AA
:102E30009887A987BA876F81788589859A8520E0E8
:102E400030E040E85FE30E94250488232CF481E011
:102E500090E09E838D833FC06F81788589859A85B8
:102E600020E03FEF4FE757E40E94C50318164CF5EA
:102E70006B857C858D859E8520E030E040E251E4C5
:102E80000E941F02DC01CB01BC01CD010E94490060
:102E9000DC01CB019E838D830FC080E991E09C8390
:102EA0008B838B819C810197F1F79C838B838D8130
:102EB0009E8101979E838D838D819E81009769F706
:102EC00014C06F81788589859A850E944900DC014C
:102ED000CB019E838D838D819E819A838983898195
:102EE0009A810197F1F79A8389838889482F50E066
:102EF0008F85282F30E0CA01880F991F880F991FEE
:102F0000820F931FFC01E35CFC4F8081898B8989D0
:102F100061960FB6F894DEBF0FBECDBFCF91DF91A3
:102F20000895DF93CF930F92CDB7DEB782E063E0D1
:102F30000E94B026813011F419821DC082E064E045
:102F40000E94B026813019F481E0898314C082E0A8
:102F500065E00E94B026813019F482E089830BC0BD
:102F600082E066E00E94B026813019F483E0898314
:102F700002C08FEF898389810F90CF91DF910895EF
:102F8000DF93CF9300D0CDB7DEB7898381E064E0D3
:102F900040E00E9471250E949117982F898198170F
:102FA00039F081E064E041E00E9471251A824FC04F
:102FB00081E064E041E00E94712581E065E040E04D
:102FC0000E9471250E949117982F8981981741F0CE
:102FD00081E065E041E00E94712581E08A8337C08D
:102FE00081E065E041E00E94712581E066E040E01B
:102FF0000E9471250E949117982F8981981741F09E
:1030000081E066E041E00E94712582E08A831FC072
:1030100081E066E041E00E94712581E067E040E0E8
:103020000E9471250E949117982F8981981741F06D
:1030300081E067E041E00E94712583E08A8307C058
:1030400081E067E041E00E9471258FEF8A838A81E9
:103050000F900F90CF91DF910895DF93CF9300D021
:1030600000D00F92CDB7DEB79C838B836D830E9417
:10307000DB168A8303C00E94DB168A838A818F3F16
:10308000D1F3198217C08981282F30E08B819C8170
:10309000FC01E20FF31F8A8180830E94DB168A8382
:1030A00003C00E94DB168A838A818F3FD1F3898116
:1030B0008F5F89838A818A3251F08981282F30E09D
:1030C0008D81882F90E0019728173907E4F28981D4
:1030D000282F30E08B819C81FC01E20FF31F1082CE
:1030E0000F900F900F900F900F90CF91DF91089558
:1030F000DF93CF93CDB7DEB760E875E280E090E074
:103100000E94E11CCF91DF910895DF93CF930F923E
:10311000CDB7DEB783E063E00E94B026882319F0C4
:1031200081E0898301C0198289810F90CF91DF915D
:103130000895DF93CF93CDB7DEB70E94541DCF9192
:10314000DF910895DF93CF9300D0CDB7DEB79A8398
:10315000898389819A810E94831D81E00F900F905D
:10316000CF91DF910895DF93CF9300D00F92CDB729
:10317000DEB79A8389836B8389819A816B810E94F0
:10318000A61D81E00F900F900F90CF91DF910895D1
:10319000DF93CF93CDB7DEB72E970FB6F894DEBF8F
:1031A0000FBECDBF0E94652180E090E0AAE7B4E4A5
:1031B0008B879C87AD87BE876B857C858D859E853B
:1031C00020E030E04AE755E40E941F02DC01CB0119
:1031D0008F839887A987BA876F81788589859A8533
:1031E00020E030E040E85FE30E94250488232CF4CF
:1031F00081E090E09E838D833FC06F8178858985D3
:103200009A8520E03FEF4FE757E40E94C503181668
:103210004CF56B857C858D859E8520E030E040E215
:1032200051E40E941F02DC01CB01BC01CD010E94D0
:103230004900DC01CB019E838D830FC080E991E0C2
:103240009C838B838B819C810197F1F79C838B837B
:103250008D819E8101979E838D838D819E810097B4
:1032600069F714C06F81788589859A850E94490025
:10327000DC01CB019E838D838D819E819A8389831E
:1032800089819A810197F1F79A8389832E960FB6E7
:10329000F894DEBF0FBECDBFCF91DF910895DF93CD
:1032A000CF93CDB7DEB761970FB6F894DEBF0FBEF0
:1032B000CDBF8F87688B498B83E50E943F140E94A6
:1032C000B0218F8580650E94122288890E94862203
:1032D00089890E9486220E94F52185E40E943F147C
:1032E00080E090E0A0EAB0E48B879C87AD87BE8742
:1032F0006B857C858D859E8520E030E04AE755E42E
:103300000E941F02DC01CB018F839887A987BA87AF
:103310006F81788589859A8520E030E040E85FE319
:103320000E94250488232CF481E090E09E838D8305
:103330003FC06F81788589859A8520E03FEF4FE710
:1033400057E40E94C50318164CF56B857C858D8566
:103350009E8520E030E040E251E40E941F02DC0143
:10336000CB01BC01CD010E944900DC01CB019E8351
:103370008D830FC080E991E09C838B838B819C813E
:103380000197F1F79C838B838D819E8101979E83AA
:103390008D838D819E81009769F714C06F81788538
:1033A00089859A850E944900DC01CB019E838D832B
:1033B0008D819E819A83898389819A810197F1F712
:1033C0009A83898361960FB6F894DEBF0FBECDBF96
:1033D000CF91DF910895DF93CF93CDB7DEB761979B
:1033E0000FB6F894DEBF0FBECDBF888B698B1F86EA
:1033F00083E50E943F140E94B02185E40E943F149F
:10340000888980650E94122289890E9486220E94F2
:10341000D421888980650E944C22CE010F960E949B
:10342000A7220E94F52180E090E0A0EAB0E48B871B
:103430009C87AD87BE876B857C858D859E8520E0CA
:1034400030E04AE755E40E941F02DC01CB018F8384
:103450009887A987BA876F81788589859A8520E0C2
:1034600030E040E85FE30E94250488232CF481E0EB
:1034700090E09E838D833FC06F81788589859A8592
:1034800020E03FEF4FE757E40E94C50318164CF5C4
:103490006B857C858D859E8520E030E040E251E49F
:1034A0000E941F02DC01CB01BC01CD010E9449003A
:1034B000DC01CB019E838D830FC080E991E09C836A
:1034C0008B838B819C810197F1F79C838B838D810A
:1034D0009E8101979E838D838D819E81009769F7E0
:1034E00014C06F81788589859A850E944900DC0126
:1034F000CB019E838D838D819E819A83898389816F
:103500009A810197F1F79A8389838F8561960FB627
:10351000F894DEBF0FBECDBFCF91DF910895DF934A
:10352000CF9300D000D000D0CDB7DEB78B836C83B3
:103530005E834D838D819E819A83898310C0E9814A
:10354000FA8190818B816C81492F0E944F198C8167
:103550008F5F8C8389819A8101969A838983E9811F
:10356000FA818081882359F726960FB6F894DEBF3A
:103570000FBECDBFCF91DF9108950F931F93DF93BF
:10358000CF9300D000D000D0CDB7DEB78A836B8355
:103590005D834C832E83198214C08981282F30E0EB
:1035A0008C819D818C01020F131F8A816B810E9487
:1035B000EB19F80180838B818F5F8B8389818F5F0B
:1035C00089838981282F30E08E81882F90E00197B0
:1035D0002817390714F38E81882F90E09C01215021
:1035E00030408C819D81FC01E20FF31F10822696F2
:1035F0000FB6F894DEBF0FBECDBFCF91DF911F9104
:103600000F910895DF93CF93CDB7DEB760970FB6D4
:10361000F894DEBF0FBECDBF9F838E8368872DB722
:103620003EB7388B2F878DB79EB79A87898781E001
:103630008B838885882F90E02DB73EB7281B390BE8
:103640000FB6F8943EBF0FBE2DBF8DB79EB7019643
:103650009E878D878D859E8500969E878D872D857B
:103660003E853D832C838B818A838A81883020F537
:1036700019822C813D818A816981A90128850E9456
:10368000BD1A2C813D818E819F81B9010E94E22962
:10369000009769F48A81882F90E0382F222789814A
:1036A000882F90E0822B932B9C878B8707C0898182
:1036B0009885890F8983DDCF1C861B8689859A852D
:1036C0000FB6F8949EBF0FBE8DBF8B859C852F854E
:1036D00038890FB6F8943EBF0FBE2DBF60960FB667
:1036E000F894DEBF0FBECDBFCF91DF910895DF9379
:1036F000CF9300D00F92CDB7DEB789838981282F71
:1037000030E03B832A838A819B81009731F02A81B4
:103710003B8121303105B1F029C083E064E041E014
:103720000E948E2483E064E040E00E94712583E0E3
:1037300062E041E00E948E2483E063E041E00E9469
:103740008E2414C082E065E041E00E948E2482E075
:1037500065E040E00E94712582E063E041E00E9464
:103760008E2482E064E041E00E948E240F900F904E
:103770000F90CF91DF910895DF93CF93CDB7DEB750
:1037800028970FB6F894DEBF0FBECDBF89836A833A
:103790008981282F30E038872F838F819885009783
:1037A00031F02F8138852130310559F153C083E044
:1037B00064E041E00E9471258A81282F30E03E8339
:1037C0002D838D819E81009731F02D813E812130A6
:1037D000310561F03FC083E062E041E00E94712565
:1037E00083E063E040E00E94712534C083E062E042
:1037F00040E00E94712583E063E041E00E94712572
:1038000029C083E065E041E00E9471258A81282F6C
:1038100030E03C832B838B819C81009731F02B819E
:103820003C812130310561F015C082E065E041E066
:103830000E94712582E066E040E00E9471250AC086
:1038400082E065E040E00E94712582E066E041E0B0
:103850000E94712528960FB6F894DEBF0FBECDBF2B
:10386000CF91DF910895DF93CF9300D00F92CDB722
:10387000DEB789838981282F30E03B832A838A81C0
:103880009B81009731F02A813B812130310539F04D
:103890000BC083E064E040E00E94712505C083E036
:1038A00065E040E00E9471250F900F900F90CF913E
:1038B000DF910895DF93CF93CDB7DEB780E063E06B
:1038C00041E00E948E24CF91DF910895DF93CF9342
:1038D000CDB7DEB780E063E041E00E947125CF9173
:1038E000DF910895DF93CF93CDB7DEB780E063E03B
:1038F00040E00E947125CF91DF910895DF93CF932F
:10390000CDB7DEB781E060E040E00E948E2483E026
:1039100066E040E00E948E2483E062E040E00E9486
:103920008E24CF91DF910895DF93CF9300D000D004
:10393000CDB7DEB78A8319828A81282F30E03C8395
:103940002B838B819C818130910579F02B813C8187
:103950002230310581F08B819C81009789F481E0D0
:1039600060E00E94B02689830BC083E066E00E947D
:10397000B026898305C083E062E00E94B026898377
:1039800089810F900F900F900F90CF91DF91089544
:10399000DF93CF93CDB7DEB7E1E4F0E08EE0808334
:1039A000CF91DF910895DF93CF93CDB7DEB7E1E4F8
:1039B000F0E088E18083E1E4F0E01082CF91DF91D4
:1039C0000895DF93CF93CDB7DEB728970FB6F8945D
:1039D000DEBF0FBECDBF6D837E838F839887AAE243
:1039E000B0E0EAE2F0E0808188618C936D817E81B5
:1039F0008F8198850E940705DC01CB01BC01CD01B8
:103A000020E030E040E851E40E941F02DC01CB01DD
:103A10009C01AD0160E074E284E79BE40E9419031D
:103A2000DC01CB01BC01CD0120E030E040E85FE3E8
:103A30000E94C101DC01CB01BC01CD010E94490003
:103A4000DC01CB0189839A83AB83BC83E0E4F0E0A3
:103A500089819A81AB81BC81892F9A2FAB2FBB279B
:103A60008083E9E2F0E089818083A0E4B0E0E0E4D3
:103A7000F0E0808186688C9328960FB6F894DEBFBC
:103A80000FBECDBFCF91DF910895DF93CF93CDB718
:103A9000DEB7EBE2F0E080818823DCF7ECE2F0E0D7
:103AA0008081CF91DF910895DF93CF930F92CDB7AF
:103AB000DEB7EBE2F0E0808188232CF4ECE2F0E06A
:103AC0008081898301C0198289810F90CF91DF9114
:103AD0000895DF93CF930F92CDB7DEB78983EBE2E2
:103AE000F0E08081829586958770882F90E08170C4
:103AF00090700097A1F3ECE2F0E0898180830F9051
:103B0000CF91DF910895DF93CF9300D000D0CDB750
:103B1000DEB79C838B838B819C819A8389830AC0C7
:103B2000E981FA8180810E94691D89819A810196CB
:103B30009A838983E981FA818081882389F70F90AC
:103B40000F900F900F90CF91DF910895DF93CF9357
:103B500000D000D00F92CDB7DEB79C838B836D83EE
:103B60000E94541D8823E1F70E94451D8A838D81A0
:103B7000813091F1198210C08981282F30E08B812A
:103B80009C81FC01E20FF31F8A8180830E94451D06
:103B90008A8389818F5F89838A818A3081F08A81D3
:103BA0008D3069F08A81882351F08981282F30E097
:103BB0008D81882F90E0019728173907ECF20E9439
:103BC000541D8823E1F78981282F30E08B819C8167
:103BD000FC01E20FF31F10820F900F900F900F90D7
:103BE0000F90CF91DF910895DF93CF93CDB7DEB7DC
:103BF000A5E4B0E0E5E4F0E0808180648C93A5E486
:103C0000B0E0E5E4F0E0808180628C9383E067E0DF
:103C100041E00E948E24CF91DF910895DF93CF93EE
:103C2000CDB7DEB7A9E5B0E0E9E5F0E080818160DD
:103C30008C93CF91DF910895DF93CF93CDB7DEB70B
:103C4000A9E5B0E0E9E5F0E0808182608C93A5E42D
:103C5000B0E0E5E4F0E0808188608C93CF91DF9163
:103C60000895DF93CF93CDB7DEB7A5E4B0E0E5E4E8
:103C7000F0E0808180648C93A5E4B0E0E5E4F0E0BE
:103C8000808188608C93A5E4B0E0E5E4F0E0808179
:103C900080628C9383E067E041E00E948E24CF91A4
:103CA000DF910895DF93CF9300D00F92CDB7DEB7A9
:103CB00089830E94FD238981282F30E03B832A835A
:103CC0008A819B8181309105C1F02A813B8122301C
:103CD00031052CF48A819B81009761F016C02A81FE
:103CE0003B812230310561F08A819B8183309105CF
:103CF00051F00BC00E940E1E08C00E94F41D05C0AA
:103D00000E941C1E02C00E94311E0F900F900F9047
:103D1000CF91DF910895DF93CF930F92CDB7DEB7A8
:103D20008983A4E4B0E0E4E4F0E090818981892B08
:103D30008C930F90CF91DF910895DF93CF9300D0B4
:103D400000D00F92CDB7DEB79D838C83E5E4F0E021
:103D5000808187708B838B81282F30E081E090E019
:103D6000B9010E945828CB018A838A81282F30E02C
:103D70008C819D81B9010E944428CB018195898362
:103D800089810E948B1E0F900F900F900F900F90C3
:103D9000CF91DF910895DF93CF9300D0CDB7DEB7F9
:103DA0008A83A5E4B0E0E5E4F0E090818A81892B84
:103DB0008C93E5E4F0E08081877089838981882F86
:103DC00090E0AA2797FDA095BA2FBC01CD010E94D3
:103DD00055049B01AC0160E074E284E79BE40E941F
:103DE0001903DC01CB018093540390935503A093F6
:103DF0005603B09357030F900F90CF91DF91089522
:103E0000DF93CF93CDB7DEB7A5E4B0E0E5E4F0E013
:103E10008081887F8C93CF91DF9108950F931F93BA
:103E2000DF93CF930F92CDB7DEB7898303E410E021
:103E30008981882F90E0AA2797FDA095BA2FBC0111
:103E4000CD010E945504DC01CB01BC01CD0120E075
:103E500030E048EC52E40E941903DC01CB01BC01C4
:103E6000CD0120E030E04FE753E40E941F02DC0167
:103E7000CB01BC01CD010E944900DC01CB01F8015E
:103E800080830F90CF91DF911F910F910895DF9361
:103E9000CF93CDB7DEB7EFE4F0E082E88083EEE4C5
:103EA000F0E088E18083ECE4F0E01082EDE4F0E003
:103EB000108283E065E041E00E948E24CF91DF9183
:103EC0000895DF93CF930F92CDB7DEB789830E9419
:103ED000FD238981882F90E08330910511F40E94A1
:103EE000471F0F90CF91DF910895DF93CF930F92EB
:103EF000CDB7DEB789830E94891FAEE4B0E0EEE45F
:103F0000F0E090818981892B8C930F90CF91DF9184
:103F10000895DF93CF93CDB7DEB7AEE4B0E0EEE423
:103F2000F0E08081887F8C93CF91DF910895DF93BB
:103F3000CF9300D000D000D0CDB7DEB76B837C83A9
:103F40008D839E8380915A0390915B03A0915C03C3
:103F5000B0915D03BC01CD012B813C814D815E811F
:103F60000E941F02DC01CB01BC01CD010E9449006F
:103F7000DC01CB019A838983EAE4F0E089818083C4
:103F8000EBE4F0E089819A81892F99278083269636
:103F90000FB6F894DEBF0FBECDBFCF91DF9108956D
:103FA000EF92FF920F931F93DF93CF9300D0CDB783
:103FB000DEB79A83898380E094E2A4E7B7E4809334
:103FC0005A0390935B03A0935C03B0935D03E0906E
:103FD0005A03F0905B0300915C0310915D038981AB
:103FE0009A81CC01A0E0B0E0BC01CD010E940705A0
:103FF0009B01AC01C801B7010E941903DC01CB0190
:10400000BC01CD0120E030E040E85FE30E94C10147
:10401000DC01CB01BC01CD010E944900DC01CB01D8
:104020009093590380935803E6E4F0E0809158039D
:10403000909159038083E7E4F0E0809158039091D8
:104040005903892F992780830F900F90CF91DF918B
:104050001F910F91FF90EF900895DF93CF93CDB70D
:10406000DEB7A3E5B0E0E3E5F0E0808180648C9307
:10407000A3E5B0E0E3E5F0E0808180628C9381E02D
:1040800063E041E00E948E24CF91DF910895DF9399
:10409000CF93CDB7DEB7A9E5B0E0E9E5F0E08081E8
:1040A00081608C93CF91DF910895DF93CF93CDB74B
:1040B000DEB7A9E5B0E0E9E5F0E0808182608C93AD
:1040C000A3E5B0E0E3E5F0E0808188608C93CF91D8
:1040D000DF910895DF93CF93CDB7DEB7A3E5B0E0CE
:1040E000E3E5F0E0808180648C93A3E5B0E0E3E554
:1040F000F0E0808188608C93A3E5B0E0E3E5F0E038
:10410000808180628C9381E063E041E00E948E2494
:10411000CF91DF910895DF93CF9300D00F92CDB769
:10412000DEB789830E94FD238981282F30E03B83FD
:104130002A838A819B8181309105C1F02A813B814C
:10414000223031052CF48A819B81009761F016C0E2
:104150002A813B812230310561F08A819B81833045
:10416000910551F00BC00E94472008C00E942D20ED
:1041700005C00E94552002C00E946A200F900F9037
:104180000F90CF91DF910895DF93CF930F92CDB72A
:10419000DEB78983A2E5B0E0E2E5F0E090818981B5
:1041A000892B8C930F90CF91DF910895DF93CF935C
:1041B00000D000D00F92CDB7DEB79D838C83E3E5AE
:1041C000F0E0808187708B838B81282F30E081E045
:1041D00090E0B9010E945828CB018A838A81282F58
:1041E00030E08C819D81B9010E944428CB018195EA
:1041F000898389810E94C4200F900F900F900F90A7
:104200000F90CF91DF910895DF93CF930F92CDB7A9
:10421000DEB78983A3E5B0E0E3E5F0E09081898132
:10422000892B8C930F90CF91DF910895DF93CF93DB
:10423000CDB7DEB7A3E5B0E0E3E5F0E08081887FAD
:104240008C93CF91DF9108950F931F93DF93CF93BA
:104250000F92CDB7DEB789830CE510E08981882FF6
:1042600090E0A0E0B0E0BC01CD010E940705DC01B8
:10427000CB01BC01CD0120E030E048EC52E40E94CB
:104280001903DC01CB01BC01CD0120E030E04FE798
:1042900053E40E941F02DC01CB01BC01CD010E944E
:1042A0004900DC01CB01F80180830F90CF91DF91B1
:1042B0001F910F910895DF93CF930F92CDB7DEB783
:1042C00089830F90CF91DF910895DF93CF93CDB77E
:1042D000DEB7A1E2B0E0E1E2F0E080818E7F8C9376
:1042E000A1E2B0E0E1E2F0E080818D7F8C93E0E23A
:1042F000F0E088E48083A6E5B0E0E6E5F0E08081C8
:1043000080648C93A6E5B0E0E6E5F0E0808184600F
:104310008C93CF91DF910895DF93CF930F92CDB718
:10432000DEB78983E2E2F0E08981880F8083A2E230
:10433000B0E0E2E2F0E080818E7F8C93A6E5B0E011
:10434000E6E5F0E0808180648C93A6E5B0E0E6E5E8
:10435000F0E0808184608C930F90CF91DF9108957D
:10436000DF93CF93CDB7DEB7A6E5B0E0E6E5F0E0AA
:10437000808180628C93E6E5F0E084EC8083E6E562
:10438000F0E080818823DCF783E40E943F14E1E2BF
:10439000F0E08081882F90E0887F907088309105D0
:1043A000B1F7CF91DF910895DF93CF93CDB7DEB70B
:1043B000A6E5B0E0E6E5F0E0808180628C93E6E57A
:1043C000F0E084EC8083E6E5F0E080818823DCF790
:1043D000E1E2F0E08081882F90E0887F907080316A
:1043E0009105B1F7CF91DF910895DF93CF93CDB7CA
:1043F000DEB7A6E5B0E0E6E5F0E0808180618C9371
:10440000E6E5F0E084EC8083E6E5F0E080818295EB
:104410008F70882F90E0817090708823A9F7CF91DA
:10442000DF910895DF93CF930F92CDB7DEB78983E5
:10443000E3E2F0E08981880F8083A3E2B0E0E3E269
:10444000F0E080818E7F8C93A6E5B0E0E6E5F0E0B9
:1044500080818F7D8C93A6E5B0E0E6E5F0E0808179
:1044600080688C93A6E5B0E0E6E5F0E080818460AA
:104470008C93E6E5F0E080818823DCF7E1E2F0E070
:104480008081882F90E0887F907088319105B1F706
:104490000F90CF91DF910895DF93CF930F92CDB717
:1044A000DEB78983E3E2F0E08981880F8083A3E2AD
:1044B000B0E0E3E2F0E0808181608C93A6E5B0E0BB
:1044C000E6E5F0E080818F7D8C93A6E5B0E0E6E53F
:1044D000F0E0808180688C93A6E5B0E0E6E5F0E04E
:1044E000808184608C93E6E5F0E080818823DCF7AE
:1044F000E1E2F0E08081882F90E0887F9070803446
:104500009105B1F70F90CF91DF910895DF93CF938D
:104510000F92CDB7DEB78983E3E2F0E08981808333
:10452000E6E5F0E084EC8083E6E5F0E08081882336
:10453000DCF7E1E2F0E08081882F90E0887F9070E6
:1045400088329105B1F70F90CF91DF910895DF93F5
:10455000CF9300D0CDB7DEB79A83898389819A81C2
:104560000097A1F0E6E5F0E084EC8083E1E2F0E082
:104570008081882F90E0887F907080359105B1F719
:10458000E3E2F0E08081E981FA8180830F900F906F
:10459000CF91DF910895DF93CF93CDB7DEB781E060
:1045A00064E041E00E948E2481E064E041E00E94EA
:1045B000712581E065E041E00E948E2481E067E0A2
:1045C00041E00E948E24ADE2B0E0EDE2F0E08081B7
:1045D00080648C93ADE2B0E0EDE2F0E08081806138
:1045E0008C93ADE2B0E0EDE2F0E0808181608C93ED
:1045F000CF91DF910895DF93CF93CDB7DEB781E000
:1046000066E041E00E948E24ADE2B0E0EDE2F0E031
:10461000808180648C93CF91DF910895DF93CF9355
:104620000F92CDB7DEB78983EFE2F0E08981808316
:10463000EFE2F0E080810F90CF91DF910895DF935A
:10464000CF930F92CDB7DEB7898389810E940E2365
:104650000F90CF91DF910895DF93CF93CDB7DEB761
:1046600080E00E940E23CF91DF910895DF93CF93D6
:104670000F92CDB7DEB78983EFE2F0E089818083C6
:104680000F90CF91DF910895DF93CF93CDB7DEB731
:1046900080E00E940E23CF91DF910895DF93CF93A6
:1046A000CDB7DEB70E940B24ECE3F0E01082CF918F
:1046B000DF910895DF93CF9300D000D0CDB7DEB760
:1046C0009A8389837C836B8389819A812B81622F72
:1046D0000E94352C0F900F900F900F90CF91DF918B
:1046E0000895DF93CF9300D0CDB7DEB79A83898347
:1046F00089819A810E942D2C0F900F90CF91DF918C
:104700000895DF93CF9300D000D000D0CDB7DEB7AF
:104710009C838B837E836D838D819E819A83898325
:1047200012C08B819C81E981FA812081622F0E94D5
:10473000352C8B819C8101969C838B8389819A8106
:1047400001969A838983E981FA818081882349F7D8
:104750008B819C8160E00E94352C26960FB6F894E0
:10476000DEBF0FBECDBFCF91DF9108950F931F9392
:10477000DF93CF9300D000D000D0CDB7DEB79B83BE
:104780008A837D836C834E83198216C08981282F8A
:1047900030E08C819D818C01020F131F8A819B81E7
:1047A0000E942D2CF80180838A819B8101969B8336
:1047B0008A8389818F5F89838981282F30E08E8168
:1047C000882F90E001972817390704F38E81882FEE
:1047D00090E09C01215030408C819D81FC01E20FD2
:1047E000F31F108226960FB6F894DEBF0FBECDBF22
:1047F000CF91DF911F910F910895DF93CF93CDB7A4
:10480000DEB7AFE5B0E0EFE5F0E0808180688C9343
:10481000CF91DF910895DF93CF93CDB7DEB7AFE5AA
:10482000B0E0EFE5F0E080818F778C93CF91DF915E
:104830000895DF93CF9300D000D0CDB7DEB7898342
:104840006A83ABE5B0E0EBE5F0E08081482F898139
:10485000282F30E081E090E002C0880F991F2A9550
:10486000E2F7842B8C938981282F30E03C832B83C3
:104870008B819C818630910559F02B813C812730BA
:10488000310579F08B819C8185309105D1F021C073
:10489000A5E5B0E0E5E5F0E090818A81892B8C9375
:1048A00018C0A5E5B0E0E5E5F0E08081282F8A8119
:1048B000882F90E0880F991F880F991F822B8C9367
:1048C00008C0A4E5B0E0E4E5F0E090818A81892B9E
:1048D0008C930F900F900F900F90CF91DF910895D0
:1048E000DF93CF930F92CDB7DEB78983ABE5B0E00E
:1048F000EBE5F0E08081482F8981282F30E081E0CE
:1049000090E0022E02C0880F991F0A94E2F780956A
:1049100084238C930F90CF91DF910895DF93CF93F1
:1049200000D000D00F92CDB7DEB789836A834B8366
:104930008981282F30E03D832C838C819D818130BB
:10494000910509F443C02C813D81223031052CF4BE
:104950008C819D81009771F0BCC02C813D812230FB
:10496000310509F45FC08C819D818330910509F484
:1049700085C0AFC08B818823A9F4AAE3B0E0EAE345
:10498000F0E08081482F8A81282F30E081E090E09C
:10499000022E02C0880F991F0A94E2F780958423A3
:1049A0008C9397C0AAE3B0E0EAE3F0E08081482F5F
:1049B0008A81282F30E081E090E0022E02C0880F2B
:1049C000991F0A94E2F7842B8C9383C08B818823F0
:1049D000A9F4A7E3B0E0E7E3F0E08081482F8A8103
:1049E000282F30E081E090E0022E02C0880F991F4E
:1049F0000A94E2F7809584238C936BC0A7E3B0E020
:104A0000E7E3F0E08081482F8A81282F30E081E0C1
:104A100090E0022E02C0880F991F0A94E2F7842BBF
:104A20008C9357C08B818823A9F4A4E3B0E0E4E31E
:104A3000F0E08081482F8A81282F30E081E090E0EB
:104A4000022E02C0880F991F0A94E2F780958423F2
:104A50008C933FC0A4E3B0E0E4E3F0E08081482F12
:104A60008A81282F30E081E090E0022E02C0880F7A
:104A7000991F0A94E2F7842B8C932BC08B81882397
:104A8000A9F4A1E3B0E0E1E3F0E08081482F8A815E
:104A9000282F30E081E090E0022E02C0880F991F9D
:104AA0000A94E2F7809584238C9313C0A1E3B0E0CD
:104AB000E1E3F0E08081482F8A81282F30E081E017
:104AC00090E0022E02C0880F991F0A94E2F7842B0F
:104AD0008C930F900F900F900F900F90CF91DF91CC
:104AE0000895DF93CF9300D000D00F92CDB7DEB7FB
:104AF00089836A834B838981282F30E03D832C830F
:104B00008C819D818130910509F443C02C813D81C8
:104B1000223031052CF48C819D81009771F0BCC04E
:104B20002C813D812230310509F45FC08C819D814B
:104B30008330910509F485C0AFC08B818130A1F429
:104B4000ABE3B0E0EBE3F0E08081482F8A81282FCF
:104B500030E081E090E0022E02C0880F991F0A9495
:104B6000E2F7842B8C9398C0ABE3B0E0EBE3F0E08A
:104B70008081482F8A81282F30E081E090E0022E4A
:104B800002C0880F991F0A94E2F7809584238C93C2
:104B900083C08B818130A1F4A8E3B0E0E8E3F0E0CA
:104BA0008081482F8A81282F30E081E090E0022E1A
:104BB00002C0880F991F0A94E2F7842B8C936CC073
:104BC000A8E3B0E0E8E3F0E08081482F8A81282F55
:104BD00030E081E090E0022E02C0880F991F0A9415
:104BE000E2F7809584238C9357C08B818130A1F4A8
:104BF000A5E3B0E0E5E3F0E08081482F8A81282F2B
:104C000030E081E090E0022E02C0880F991F0A94E4
:104C1000E2F7842B8C9340C0A5E3B0E0E5E3F0E03D
:104C20008081482F8A81282F30E081E090E0022E99
:104C300002C0880F991F0A94E2F7809584238C9311
:104C40002BC08B818130A1F4A2E3B0E0E2E3F0E07D
:104C50008081482F8A81282F30E081E090E0022E69
:104C600002C0880F991F0A94E2F7842B8C9314C01A
:104C7000A2E3B0E0E2E3F0E08081482F8A81282FB0
:104C800030E081E090E0022E02C0880F991F0A9464
:104C9000E2F7809584238C930F900F900F900F90E4
:104CA0000F90CF91DF910895DF93CF9300D000D084
:104CB0000F92CDB7DEB789836A834B838981282F12
:104CC00030E03D832C838C819D818130910501F101
:104CD0002C813D81223031052CF48C819D810097FF
:104CE00061F036C02C813D8122303105E1F08C81AC
:104CF0009D818330910511F12BC0ABE3B0E0EBE374
:104D0000F0E090818B8198238A81892B8C9320C03D
:104D1000A8E3B0E0E8E3F0E090818B8198238A81FA
:104D2000892B8C9315C0A5E3B0E0E5E3F0E090811A
:104D30008B8198238A81892B8C930AC0A2E3B0E0EF
:104D4000E2E3F0E090818B8198238A81892B8C9318
:104D50000F900F900F900F900F90CF91DF910895CB
:104D6000DF93CF9300D000D00F92CDB7DEB78A8308
:104D70006B8319828A81282F30E03D832C834C81FC
:104D80005D814130510541F18C819D8182309105D9
:104D900034F42C813D812115310561F052C04C81E4
:104DA0005D814230510551F18C819D8183309105A7
:104DB000B9F147C0E9E3F0E08081282F30E08B8132
:104DC000882F90E0A90102C0559547958A95E2F792
:104DD000CA018170898335C0E6E3F0E08081282F25
:104DE00030E08B81882F90E0A90102C0559547954E
:104DF0008A95E2F7CA018170898323C0E3E3F0E07A
:104E00008081282F30E08B81882F90E0A90102C09B
:104E1000559547958A95E2F7CA018170898311C03B
:104E2000E0E3F0E08081282F30E08B81882F90E054
:104E3000A90102C0559547958A95E2F7CA0181708C
:104E4000898389810F900F900F900F900F90CF91D1
:104E5000DF910895DF93CF9300D000D0CDB7DEB7B8
:104E600089836A838981282F30E03C832B838B815F
:104E70009C818130910549F12B813C8122303105A3
:104E80002CF48B819C81009761F05AC02B813C816E
:104E90002230310571F18B819C8183309105E9F1DC
:104EA0004FC0ABE3B0E0EBE3F0E08081482F8A81B4
:104EB000282F30E081E090E0022E02C0880F991F79
:104EC0000A94E2F784278C933BC0A8E3B0E0E8E3C0
:104ED000F0E08081482F8A81282F30E081E090E047
:104EE000022E02C0880F991F0A94E2F784278C9340
:104EF00027C0A5E3B0E0E5E3F0E08081482F8A8198
:104F0000282F30E081E090E0022E02C0880F991F28
:104F10000A94E2F784278C9313C0A2E3B0E0E2E3A3
:104F2000F0E08081482F8A81282F30E081E090E0F6
:104F3000022E02C0880F991F0A94E2F784278C93EF
:104F40000F900F900F900F90CF91DF910895DF9306
:104F5000CF93CDB7DEB7A6E2B0E0E6E2F0E0808125
:104F600080688C93A6E2B0E0E6E2F0E080818760A2
:104F70008C93A7E2B0E0E7E2F0E0808180648C935C
:104F8000CF91DF910895DF93CF93CDB7DEB7279709
:104F90000FB6F894DEBF0FBECDBF8F83A7E2B0E09F
:104FA000E7E2F0E08081887F8C93A7E2B0E0E7E25F
:104FB000F0E090818F81892B8C93A6E2B0E0E6E24D
:104FC000F0E0808180648C93E6E2F0E0808182955D
:104FD0008F70882F90E0817090700097A9F3A6E2FF
:104FE000B0E0E6E2F0E0808180618C93E4E2F0E002
:104FF0008081282F30E0E5E2F0E08081882F90E08A
:10500000982F8827822B932B9E838D838D819E8161
:10501000CC01A0E0B0E0BC01CD010E940705DC019D
:10502000CB01BC01CD012AE939E949E950E40E94EC
:105030001F02DC01CB01BC01CD0120E030E04AE7DA
:1050400054E40E941903DC01CB0189839A83AB836A
:10505000BC8389819A81AB81BC81BC01CD0127963B
:105060000FB6F894DEBF0FBECDBFCF91DF9108958C
:10507000991B79E004C0991F961708F0961B881FAA
:105080007A95C9F780950895AA1BBB1B51E107C00B
:10509000AA1FBB1FA617B70710F0A61BB70B881FC8
:1050A000991F5A95A9F780959095BC01CD01089557
:1050B00097FB092E07260AD077FD04D0E5DF06D03E
:1050C00000201AF4709561957F4F0895F6F790953A
:1050D00081959F4F08952F923F924F925F926F92CA
:1050E0007F928F929F92AF92BF92CF92DF92EF9278
:1050F000FF920F931F93CF93DF93CDB7DEB7CA1BF9
:10510000DB0B0FB6F894DEBF0FBECDBF09942A8823
:10511000398848885F846E847D848C849B84AA84CB
:10512000B984C884DF80EE80FD800C811B81AA8158
:10513000B981CE0FD11D0FB6F894DEBF0FBECDBF23
:10514000ED0108952F923F925F926F927F928F921E
:105150009F92AF92BF92CF92DF92EF92FF920F9306
:105160001F93CF93DF938C011B01EA016115710539
:1051700019F0FB0191838083209749F0CE010297BB
:10518000839728F020E030E040E050E0F6C0F801DE
:10519000A1908F018A2D90E00E94D129892BB9F727
:1051A000FDE2AF1631F4F801A1908F01552453941C
:1051B00007C0FBE2AF1619F4F801A1908F01552446
:1051C000209719F0C031D105C1F4F0E3AF1679F49E
:1051D000F8018081883711F0883549F4F801A18001
:1051E0000E5F1F4FF2E05F2AC0E1D0E006C02097BB
:1051F00021F480E3A816E9F427C0C830D10531F1C5
:10520000C930D10524F4C230D10531F50CC0CA3003
:10521000D10589F0C031D105F9F4C12CD12CE12C94
:10522000B8E0FB2E28C0C12CD12CE12CA0E4FA2E32
:1052300022C0CAE0D0E0FCECCF2EFCECDF2EFCEC70
:10524000EF2EFCE0FF2E17C0C8E0D0E0C12CD12C1F
:10525000E12CE0E1FE2E0FC09E01442737FD409572
:10526000542F60E070E080E090E80E94042DC901B6
:10527000DA016C017D0120E030E040E050E060E0C8
:105280003E01882477FC8094982C70EDB72EBA0CE0
:10529000E9E0EB1570F48A2D81548A3118F499EC09
:1052A000B92E06C08A2D81568A3150F589EAB82E6A
:1052B000BA0C8B2D90E08C179D0714F56F3FE1F031
:1052C000C216D306E406F506B0F0CA01B901A4017E
:1052D00093010E94E52C9B01AC012B0D311D411D5A
:1052E000511D2130F0E03F07F0E04F07F0E85F0785
:1052F00010F461E001C06FEFF801A1908F01C5CFFC
:105300002114310481F0662331F001501040F10185
:105310001183008308C051FE1AC002501040F101F1
:105320001183008314C067FF12C050FC05C02FEF2B
:105330003FEF4FEF5FE704C020E030E040E050E88F
:1053400082E290E0909376038093750316C050FE3E
:1053500008C050954095309521953F4F4F4F5F4F76
:105360000CC057FF0AC082E290E0909376038093CE
:1053700075032FEF3FEF4FEF5FE7B901CA01DF91F0
:10538000CF911F910F91FF90EF90DF90CF90BF9042
:10539000AF909F908F907F906F905F903F902F90F5
:1053A000089591116FC2803219F089508550D0F75D
:1053B0000895FB01DC0102C001900D924150504064
:1053C000D8F70895FB01DC018D910190801901103F
:1053D000D9F3990B0895FB01DC0101900D92002097
:1053E000E1F70895FC0101900020E9F78095909580
:1053F0008E0F9F1F0895AEE0B0E0E1E0FAE20C945A
:1054000079280D891E898F89988D97FF02C080E0C9
:1054100090E801979E838D831A83098386E08C83AD
:105420009E01255E3F4FCE010196698D7A8DA901BF
:105430000E94502A4D815E8157FD0AC02F81388518
:10544000421753070CF49A01020F131FF801108240
:105450002E96E4E00C949528AEE0B0E0E2E3FAE2A8
:105460000C9479280D891E8986E08C831A83098320
:105470008FEF9FE79E838D839E01275E3F4FCE0176
:1054800001966F89788DA9010E94502A2F81388555
:10549000020F131FF80110822E96E4E00C94952859
:1054A000ABE0B0E0E6E5FAE20C946B283C012B019E
:1054B0005A01FC0117821682838181FD03C06FEFC0
:1054C0007FEFC6C19AE0892E1E010894211C311C71
:1054D000F3012381F20123FD859123FF81912F01A7
:1054E000882309F4B2C1853239F423FD859123FF65
:1054F00081912F01853229F490E0B3010E945B2C49
:10550000E7CF982FFF24EE249924FFE1FF15D0F078
:105510009B3269F09C3228F4903259F0933291F426
:105520000EC09D3249F0903369F441E024C052E04E
:10553000F52A84E0F82A28C098E0F92A25C0E0E19D
:10554000FE2A22C0F7FC29C0892F80538A3070F4CC
:10555000F6FE05C0989C902C1124980E15C0E89C6E
:10556000E02C1124E80EF0E2FF2A0EC09E3229F44E
:10557000F6FC6BC140E4F42A07C09C3619F450E8ED
:10558000F52A02C0983649F4F20123FD959123FFD4
:1055900091912F01992309F0B8CF892F8554833039
:1055A00018F08052833038F444E050E0A40EB51E69
:1055B0005FE359830FC0933631F0933779F0933519
:1055C00009F056C020C0F5018081898342E050E097
:1055D000A40EB51E610101E010E012C0F501C0800B
:1055E000D180F6FC03C06FEF7FEF02C0692D70E041
:1055F00042E050E0A40EB51EC6010E94502C8C0162
:105600005FE7F52214C0F501C080D180F6FC03C02D
:105610006FEF7FEF02C0692D70E042E050E0A40E12
:10562000B51EC6010E94452C8C0150E8F52AF3FEF8
:1056300007C01AC080E290E0B3010E945B2CEA949C
:105640008E2D90E008171907A8F30EC0F601F7FC9D
:105650008591F7FE81916F0190E0B3010E945B2C70
:10566000E110EA94015010400115110579F7EAC0E4
:10567000943611F0993669F5F7FE08C0F5012081DE
:1056800031814281538184E090E00AC0F50180813C
:1056900091819C01442737FD4095542F82E090E092
:1056A000A80EB91E9FE6F92257FF09C050954095F4
:1056B000309521953F4F4F4F5F4FE0E8FE2ACA01DA
:1056C000B901A1012AE030E00E94872CD82ED2181F
:1056D00040C0953729F41F2D1F7E2AE030E01DC001
:1056E0001F2D197F9F3661F0903720F4983509F00F
:1056F000ACC00FC0903739F0983709F0A6C004C08D
:1057000028E030E00AC0106114FD146020E130E0B0
:1057100004C014FD166020E132E017FF08C0F50157
:10572000608171818281938144E050E008C0F5017D
:1057300080819181BC0180E090E042E050E0A40EC5
:10574000B51EA1010E94872CD82ED2188FE7F82E03
:10575000F122F6FE0BC05EEFF522D91438F4F4FE08
:1057600007C0F2FC05C08FEEF82202C01D2D01C05B
:10577000192DF4FE0DC0FE01ED0DF11D8081803369
:1057800019F499EEF92208C01F5FF2FE05C003C0AC
:105790008F2D867809F01F5F0F2DF3FC14C0F0FEEB
:1057A0000FC01E1510F09D2C0BC09D2C9E0C911A45
:1057B0001E2D06C080E290E0B3010E945B2C1F5FAB
:1057C0001E15C0F304C01E1510F4E11A01C0EE242A
:1057D00004FF0FC080E390E0B3010E945B2C02FF46
:1057E0001DC001FD03C088E790E00EC088E590E091
:1057F0000BC0802F867891F001FF02C08BE201C0C0
:1058000080E2F7FC8DE290E0B3010E945B2C06C0C1
:1058100080E390E0B3010E945B2C9A94D914C0F30A
:10582000DA94F101ED0DF11D808190E0B3010E9449
:105830005B2CDD20A9F706C080E290E0B3010E9456
:105840005B2CEA94EE20C1F743CEF30166817781A9
:10585000CB012B96E2E10C948728E199FECF9FBB08
:105860008EBBE09A99278DB30895262FE199FECF3C
:105870009FBB8EBB2DBB0FB6F894E29AE19A0FBE88
:1058800001960895992788270895FC010590615095
:1058900070400110D8F7809590958E0F9F1F089546
:1058A000FC016150704001900110D8F780959095EF
:1058B0008E0F9F1F08950F931F93CF93DF938C013B
:1058C000EB018B8181FF1BC082FF0DC02E813F81C8
:1058D0008C819D812817390764F4E881F98101934F
:1058E000F983E88306C0E885F985802F0995892B1F
:1058F00031F48E819F8101969F838E8302C00FEFCA
:105900001FEFC801DF91CF911F910F910895FA0108
:10591000AA27283051F1203181F1E8946F936E7FEE
:105920006E5F7F4F8F4F9F4FAF4FB1E03ED0B4E0DF
:105930003CD0670F781F891F9A1FA11D680F791F20
:105940008A1F911DA11D6A0F711D811D911DA11D31
:1059500020D009F468943F912AE0269F1124301941
:10596000305D3193DEF6CF010895462F4770405DDC
:105970004193B3E00FD0C9F7F6CF462F4F70405D8B
:105980004A3318F0495D31FD4052419302D0A9F7E6
:10599000EACFB4E0A6959795879577956795BA95E0
:1059A000C9F700976105710508959B01AC010A2EA6
:1059B00006945795479537952795BA95C9F7620F7D
:1059C000731F841F951FA01D0895629FD001739FB0
:1059D000F001829FE00DF11D649FE00DF11D929F8B
:1059E000F00D839FF00D749FF00D659FF00D9927CA
:1059F000729FB00DE11DF91F639FB00DE11DF91FEE
:105A0000BD01CF0111240895A1E21A2EAA1BBB1BD0
:105A1000FD010DC0AA1FBB1FEE1FFF1FA217B3077A
:105A2000E407F50720F0A21BB30BE40BF50B661F90
:105A3000771F881F991F1A9469F760957095809554
:105A400090959B01AC01BD01CF010895F894FFCF63
:105A5000456E74657220636F6D6D616E642E2E2EBF
:105A60000A00456E74657220636F6D6D616E642E01
:105A70002E2E00456E7465722070657263656E74BB
:105A80006167652028302D313030292E2E2E0A00F6
:105A9000456E7465722066726F6D20302D31303026
:105AA000005468652070726F6772616D2077696C51
:105AB0006C20726573657420696E20332073656392
:105AC0006F6E64732E00726573657420696E203387
:105AD000207365637300456E74657220557365723B
