:100000000C942A000C9447000C9447000C94470071
:100010000C9447000C9447000C9447000C94470044
:100020000C9447000C9447000C9447000C94470034
:100030000C9447000C9447000C9447000C94470024
:100040000C9447000C9447000C9447000C94470014
:100050000C94470011241FBECFE5D8E0DEBFCDBF12
:1000600012E0A0E6B0E0E4E6FEE402C005900D92E6
:10007000A638B107D9F712E0A6E8B2E001C01D9298
:10008000A23AB107E1F70E9475070C9430270C944F
:100090000000EF92FF920F931F937B018C0120E0F1
:1000A00030E040E05FE40E94F50388238CF0C80153
:1000B000B70120E030E040E05FE40E94C1010E940F
:1000C000B3049B01AC01205030404040504806C072
:1000D000C801B7010E94B3049B01AC01B901CA0178
:1000E0001F910F91FF90EF900895A0E0B0E0EBE733
:1000F000F0E00C944624DC012B01FA019C91923033
:1001000008F439C1EB018881823008F433C194309E
:1001100069F4843009F02FC111969C91119789815F
:10012000981709F428C1ADE6B1E025C1843009F47F
:1001300021C18230A9F4923009F01DC19A01AD01AC
:1001400088E0EA010990AE01E90109929E0181501F
:10015000C1F7E201898111969C918923818308C1AD
:10016000923009F407C112962D903C901397EB0141
:100170008A819B811496AD90BD90CD90DC901797AD
:10018000EC80FD800E811F819101281B390BB90184
:1001900037FF04C066277727621B730B6032710537
:1001A0000CF061C0121613066CF537014801062EDB
:1001B00004C096948794779467940A94D2F721E0C8
:1001C00030E040E050E004C0220F331F441F551FB1
:1001D0006A95D2F721503040404050402E213F21B7
:1001E00040235123211531054105510521F021E01E
:1001F00030E040E050E079018A01E628F72808293C
:1002000019293CC0232BD1F1260E371E350146019A
:10021000062E04C096948794779467940A94D2F734
:1002200021E030E040E050E004C0220F331F441FC3
:10023000551F6A95D2F721503040404050402A2146
:100240003B214C215D21211531054105510521F04E
:1002500021E030E040E050E059016A01A628B728CB
:10026000C828D9280BC0821593052CF01C01AA249C
:10027000BB24650103C0EE24FF24870111969C91E5
:10028000D20111968C91981709F445C0992339F041
:10029000A80197012A193B094C095D0906C0A6016E
:1002A00095012E193F09400B510B57FD08C01182D3
:1002B0003382228224833583468357831DC081E0A5
:1002C00081833382228288279927DC01821B930B4A
:1002D000A40BB50B84839583A683B7830DC0220F2F
:1002E000331F441F551F24833583468357838281E0
:1002F000938101979383828324813581468157813D
:10030000DA01C9010197A109B1098F5F9F4FAF4F72
:10031000BF4328F30BC0918333822282EA0CFB1C7B
:100320000C1D1D1DE482F5820683178383E0808304
:10033000248135814681578157FF1AC0C901AA27F8
:1003400097FDA095BA2F81709070A070B0705695EF
:10035000479537952795822B932BA42BB52B848318
:100360009583A683B7838281938101969383828349
:10037000DF0101C0D201CD01CDB7DEB7E2E10C94BF
:100380006224A0E2B0E0E7ECF1E00C94522469832F
:100390007A838B839C832D833E834F835887E9E048
:1003A000EE2EF12CEC0EFD1ECE010196B7010E943F
:1003B000A4068E010F5E1F4FCE010596B8010E9464
:1003C000A4068A8991E089278A8BC701B801AE010A
:1003D000475E5F4F0E9475000E94CF05A096E6E041
:1003E0000C946E24A0E2B0E0E8EFF1E00C9452240B
:1003F00069837A838B839C832D833E834F835887C5
:10040000F9E0EF2EF12CEC0EFD1ECE010196B701A6
:100410000E94A4068E010F5E1F4FCE010596B80103
:100420000E94A406C701B801AE01475E5F4F0E945B
:1004300075000E94CF05A096E6E00C946E24A0E221
:10044000B0E0E5E2F2E00C94462469837A838B8382
:100450009C832D833E834F835887CE010196BE0136
:10046000675F7F4F0E94A406CE010596BE016F5EB6
:100470007F4F0E94A4069985923088F08989823046
:10048000C8F0943019F4823051F404C0843029F457
:10049000923081F48DE691E0C6C0923049F420E0BC
:1004A0009A858A89981321E02A87CE010996BBC0D4
:1004B000823049F420E09A858A89981321E02A8BBA
:1004C000CE014196B0C02D843E844F8458886D88FB
:1004D0007E888F88988CEE24FF248701AA24BB2471
:1004E000650140E050E060E070E0E0E0F0E0C10174
:1004F00081709070892BE9F0E60CF71C081D191D1E
:100500009A01AB012A0D3B1D4C1D5D1D80E090E062
:10051000A0E0B0E0E614F7040805190520F481E036
:1005200090E0A0E0B0E0BA01A901480F591F6A1F8E
:100530007B1FAA0CBB1CCC1CDD1C97FE08C081E0F5
:1005400090E0A0E0B0E0A82AB92ACA2ADB2A3196B6
:10055000E032F10549F0660C771C881C991C569412
:10056000479437942794C3CFFA85EA892B893C892D
:100570008B859C85280F391F2E5F3F4F17C0CA01FE
:1005800081709070892B61F016950795F794E79428
:1005900080E090E0A0E0B0E8E82AF92A0A2B1B2BC3
:1005A00076956795579547952F5F3F4F77FDE7CF36
:1005B0000CC0440F551F661F771F17FD4160EE0CDE
:1005C000FF1C001F111F21503040403090E05907A0
:1005D00090E0690790E4790760F32B8F3C8FDB0193
:1005E000CA018F779070A070B07080349105A1051A
:1005F000B10561F447FD0AC0E114F10401051105DC
:1006000029F0405C5F4F6F4F7F4F40781A8EFE1786
:1006100011F081E08A8F4D8F5E8F6F8F78A383E01A
:10062000898FCE0149960E94CF05A096E2E10C94F5
:100630006224A8E1B0E0EFE1F3E00C944E2469837A
:100640007A838B839C832D833E834F835887B9E0C5
:10065000EB2EF12CEC0EFD1ECE010196B7010E948F
:10066000A4068E010F5E1F4FCE010596B8010E94B1
:10067000A4062985223008F47EC03989323010F46E
:10068000B8017CC08A859A8989278A87243011F02D
:10069000223031F4231709F06EC06DE671E06EC0B0
:1006A000343039F41D861E861F86188A1C861B86E8
:1006B00004C0323021F484E08987B7015FC02B8504
:1006C0003C858B899C89281B390B3C872B87ED84C3
:1006D000FE840F851889AD88BE88CF88D88CEA142F
:1006E000FB040C051D0540F4EE0CFF1C001F111F40
:1006F000215030403C872B8720E030E040E050E044
:1007000080E090E0A0E0B0E460E070E0EA14FB0478
:100710000C051D0540F0282B392B4A2B5B2BEA18C2
:10072000FB080C091D09B695A79597958795EE0CC2
:10073000FF1C001F111F6F5F7F4F6F31710531F775
:10074000DA01C9018F779070A070B0708034910584
:10075000A105B10561F427FD0AC0E114F10401050A
:10076000110529F0205C3F4F4F4F5F4F20782D87B8
:100770003E874F87588BBE01675F7F4FCB010E943A
:10078000CF056896EAE00C946A24A8E1B0E0EBECAF
:10079000F3E00C94522469837A838B839C832D83AA
:1007A0003E834F83588789E0E82EF12CEC0EFD1E26
:1007B000CE010196B7010E94A4068E010F5E1F4F65
:1007C000CE010596B8010E94A4068985823040F0CA
:1007D0008989823028F0C701B8010E941C0701C036
:1007E0008FEF6896E6E00C946E24A8E1B0E0EBEFA2
:1007F000F3E00C94522469837A838B839C832D834A
:100800003E834F83588789E0E82EF12CEC0EFD1EC5
:10081000CE010196B7010E94A4068E010F5E1F4F04
:10082000CE010596B8010E94A4068985823040F069
:100830008989823028F0C701B8010E941C0701C0D5
:100840008FEF6896E6E00C946E24A8E1B0E0EBE24E
:10085000F4E00C94522469837A838B839C832D83E8
:100860003E834F83588789E0E82EF12CEC0EFD1E65
:10087000CE010196B7010E94A4068E010F5E1F4FA4
:10088000CE010596B8010E94A4068985823040F009
:100890008989823028F0C701B8010E941C0701C075
:1008A00081E06896E6E00C946E24A8E0B0E0EBE509
:1008B000F4E00C944F249B01AC0183E08983DA01BE
:1008C000C9018827B7FD83959927AA27BB27B82E8A
:1008D000211531054105510519F482E089833AC09B
:1008E0008823A9F0203080E0380780E0480780E8BE
:1008F000580729F460E070E080E09FEC30C0EE24FF
:10090000FF248701E21AF30A040B150B02C07901D8
:100910008A018EE1C82ED12CDC82CB82ED82FE8250
:100920000F831887C801B7010E9480050197181628
:10093000190684F4082E04C0EE0CFF1C001F111FC2
:100940000A94D2F7ED82FE820F831887C81AD90A5B
:10095000DC82CB82BA82CE0101960E94CF05289616
:10096000E9E00C946B24ACE0B0E0E9EBF4E00C942B
:10097000562469837A838B839C83CE010196BE01C2
:100980006B5F7F4F0E94A4068D81823061F18230BF
:1009900050F1843021F48E81882351F12EC02F81B3
:1009A000388537FD20C06E812F3131051CF066235C
:1009B000F9F023C08EE190E0821B930B29853A85E4
:1009C0004B855C8504C056954795379527958A9544
:1009D000D2F76623B1F050954095309521953F4F61
:1009E0004F4F5F4F0EC020E030E040E050E009C0C4
:1009F0002FEF3FEF4FEF5FE704C020E030E040E033
:100A000050E8B901CA012C96E2E00C947224A8E0E7
:100A1000B0E0EDE0F5E00C944E247B018C01611513
:100A200071058105910519F482E0898360C083E036
:100A300089838EE1C82ED12CDC82CB82ED82FE82AE
:100A40000F831887C801B7010E948005FC01319708
:100A5000F7FF3BC0222733272E1B3F0B57016801AE
:100A6000022E04C0D694C794B794A7940A94D2F7E0
:100A700040E050E060E070E081E090E0A0E0B0E0B5
:100A800004C0880F991FAA1FBB1F2A95D2F7019790
:100A9000A109B1098E219F21A023B1230097A105AF
:100AA000B10521F041E050E060E070E04A295B29A7
:100AB0006C297D294D835E836F8378878EE190E07A
:100AC0008E1B9F0B9C838B8312C0309781F00E2E60
:100AD00004C0EE0CFF1C001F111F0A94D2F7ED8218
:100AE000FE820F831887CE1ADF0ADC82CB821A823D
:100AF000CE0101960E94CF052896EAE00C946A2464
:100B0000EF92FF920F931F937B018C0180E0E81618
:100B100080E0F80681E0080780E0180788F48FEF8E
:100B2000E816F1040105110531F028F088E090E0A5
:100B3000A0E0B0E017C080E090E0A0E0B0E012C01C
:100B400080E0E81680E0F80680E0080781E01807FA
:100B500028F088E190E0A0E0B0E004C080E190E0FF
:100B6000A0E0B0E020E230E040E050E0281B390B8C
:100B70004A0B5B0B04C016950795F794E7948A958A
:100B8000D2F7F701EB58FE4F8081281B310941094C
:100B90005109C9011F910F91FF90EF900895DF92C5
:100BA000EF92FF920F931F93FC01E480F580068182
:100BB0001781D1808081823048F480E090E0A0E10C
:100BC000B0E0E82AF92A0A2B1B2BA5C0843009F4CF
:100BD0009FC0823021F4EE24FF24870105C0E11478
:100BE000F1040105110519F4E0E0F0E096C062811E
:100BF00073819FEF623879070CF05BC022E83FEF0A
:100C0000261B370B2A3131052CF020E030E040E084
:100C100050E02AC0B801A701022E04C0769567955E
:100C2000579547950A94D2F781E090E0A0E0B0E0B4
:100C300004C0880F991FAA1FBB1F2A95D2F70197DE
:100C4000A109B1098E219F21A023B1230097A105FD
:100C5000B10521F081E090E0A0E0B0E09A01AB01A5
:100C6000282B392B4A2B5B2BDA01C9018F77907027
:100C7000A070B07080349105A105B10539F427FF4B
:100C800009C0205C3F4F4F4F5F4F04C0215C3F4F76
:100C90004F4F5F4FE0E0F0E02030A0E03A07A0E0E7
:100CA0004A07A0E45A0710F0E1E0F0E079018A0178
:100CB00027C06038710564F5FB01E158FF4FD8018A
:100CC000C7018F779070A070B07080349105A10536
:100CD000B10539F4E7FE0DC080E490E0A0E0B0E09B
:100CE00004C08FE390E0A0E0B0E0E80EF91E0A1F18
:100CF0001B1F17FF05C016950795F794E7943196CB
:100D000087E016950795F794E7948A95D1F705C083
:100D1000EE24FF248701EFEFF0E06E2F6795662742
:100D20006795902F9F77D794DD24D7948E2F869543
:100D3000492F462B582F5D29B701CA011F910F91EA
:100D4000FF90EF90DF900895FC01DB01408151811D
:100D50002281622F6F7770E0221F2227221F93814A
:100D6000892F880F822B282F30E0991F9927991FF0
:100D700011969C93119721153105A9F5411551053F
:100D80006105710511F482E037C082E89FEF139688
:100D90009C938E9312979A01AB0167E0220F331F49
:100DA000441F551F6A95D1F783E08C930DC0220F25
:100DB000331F441F551F12968D919C9113970197D5
:100DC00013969C938E931297203080E0380780E032
:100DD000480780E4580758F314962D933D934D939C
:100DE0005C93179708952F3F310579F4411551050C
:100DF0006105710519F484E08C93089564FF03C0C4
:100E000081E08C9312C01C9210C02F573040139673
:100E10003C932E93129783E08C9387E0440F551FE9
:100E2000661F771F8A95D1F7706414964D935D9372
:100E30006D937C93179708951F93DC01FB019C91A0
:100E4000923008F447C08081823008F443C0943067
:100E500051F411961C91843099F58181682F70E0CE
:100E6000611B71093FC0843021F0923031F482302F
:100E7000B9F18181882389F12DC011961C911197B8
:100E80008230F1F081811817D9F412962D913C919E
:100E90001397828193818217930794F0281739075B
:100EA000BCF014968D919D910D90BC91A02D248144
:100EB000358146815781281739074A075B0718F49F
:100EC000112341F00AC082179307A407B50740F425
:100ED000112319F061E070E005C06FEF7FEF02C0F1
:100EE00060E070E0CB011F910895DF93CF93CDB701
:100EF000DEB70E94F60FFFCFDF93CF93CDB7DEB7FB
:100F00000E949F1A0E94F60F0E94C3140E949F160F
:100F10000E943B160E94261A0E940C0F80E00E943D
:100F200043190E94B90BCF91DF910895DF93CF93BE
:100F3000CDB7DEB70E945216882309F453C08FE95B
:100F400092E062E00E9481168FE992E020E630E0B4
:100F5000B9010E947D24009721F480E00E94C30E15
:100F600086C08FE992E022E630E0B9010E947D243C
:100F7000009721F481E00E94C30E79C08FE992E0CE
:100F800024E630E0B9010E947D24009721F482E03C
:100F90000E94C30E6CC08FE992E026E630E0B901F2
:100FA0000E947D24009721F483E00E94C30E5FC05D
:100FB0008FE992E028E630E0B9010E947D24009795
:100FC00021F484E00E94C30E52C08FE992E02AE629
:100FD00030E0B9010E947D24009709F048C00E94CA
:100FE000FA0B45C08FE992E062E00E94EE158FE9AE
:100FF00092E020E630E0B9010E947D24009721F4C0
:1010000080E00E94C30E33C08FE992E022E630E018
:10101000B9010E947D24009721F481E00E94C30E53
:1010200026C08FE992E024E630E0B9010E947D24D9
:10103000009721F482E00E94C30E19C08FE992E06C
:1010400026E630E0B9010E947D24009721F483E078
:101050000E94C30E0CC08FE992E028E630E0B9018F
:101060000E947D24009719F484E00E94C30E0E9420
:101070001A0F8D3128F080E060E00E94881907C0C7
:101080000E941A0F853118F480E00E94FF19CF9159
:10109000DF910895DF93CF93CDB7DEB780E060E0B6
:1010A0000E94BC17CF91DF910895DF93CF93CDB706
:1010B000DEB728970FB6F894DEBF0FBECDBF9D8375
:1010C0008C837F836E830E944A088B8381E08A83AE
:1010D00006C08B818E508B838A818F5F8A838B8140
:1010E0008F30B8F78A81893010F0188623C08B8141
:1010F000882F90E09C01220F331FC901880F991F90
:10110000880F991F880F991F820F931F89832C8145
:101110003D818A816981A9010E945B188981982F8C
:10112000975F2E813F818A81692FA9010E945B18F8
:1011300081E08887888528960FB6F894DEBF0FBEB9
:10114000CDBFCF91DF910895DF93CF93CDB7DEB7B9
:1011500086E992E069E00E94CE18CF91DF91089570
:10116000DF93CF93CDB7DEB7ED970FB6F894DEBF20
:101170000FBECDBF1AAE19AE8CE690E00E94661687
:1011800086E992E069E00E94811686E992E069E0D2
:101190000E94CE1889AF89AD882309F0A9C18EE7D6
:1011A00090E00E946616CE01CB9663E00E94811605
:1011B000CE01CB9626EB30E0B9010E947D2400974A
:1011C00009F47AC00E94321A8AEB90E00E946616F7
:1011D00080E090E0AAEFB4E48DAB9EABAFABB8AFCC
:1011E0006DA97EA98FA998AD20E030E04AE755E4CB
:1011F0000E941F02DC01CB0189AB9AABABABBCAB4D
:1012000069A97AA98BA99CA920E030E040E85FE3B6
:101210000E94250488232CF481E090E098AB8FA7EE
:101220003FC069A97AA98BA99CA920E03FEF4FE7AD
:1012300057E40E94C50318164CF56DA97EA98FA925
:1012400098AD20E030E040E251E40E941F02DC0152
:10125000CB01BC01CD010E944900DC01CB0198AB60
:101260008FA70FC080E991E09EA78DA78DA59EA5B1
:101270000197F1F79EA78DA78FA598A9019798AB25
:101280008FA78FA598A9009769F714C069A97AA9B3
:101290008BA99CA90E944900DC01CB0198AB8FA7C8
:1012A0008FA598A99CA78BA78BA59CA50197F1F763
:1012B0009CA78BA70E94941A86E992E02DE832E061
:1012C000B9010E945508882329F08FED90E00E9413
:1012D000661694C184E091E00E9466160E94321A5C
:1012E0008AEB90E00E94661680E090E0AAEFB4E4FA
:1012F0008FA398A7A9A7BAA76FA178A589A59AA532
:1013000020E030E04AE755E40E941F02DC01CB01F7
:101310008BA39CA3ADA3BEA36BA17CA18DA19EA119
:1013200020E030E040E85FE30E94250488232CF4AD
:1013300081E090E09AA389A33FC06BA17CA18DA11D
:101340009EA120E03FEF4FE757E40E94C503181627
:101350004CF56FA178A589A59AA520E030E040E280
:1013600051E40E941F02DC01CB01BC01CD010E94AF
:101370004900DC01CB019AA389A30FC080E991E069
:1013800098A38F8F8F8D98A10197F1F798A38F8FD6
:1013900089A19AA101979AA389A389A19AA10097EB
:1013A00069F714C06BA17CA18DA19EA10E94490088
:1013B000DC01CB019AA389A389A19AA19E8F8D8F6D
:1013C0008D8D9E8D0197F1F79E8F8D8F0E94941ABF
:1013D00015C183E291E00E9466168DE892E069E013
:1013E0000E9481168DE892E069E00E94CE18009775
:1013F00041F485E391E00E9466168AAD8F5F8AAF63
:1014000077C087E491E00E94661680E090E0AAE74A
:10141000B4E4898F9A8FAB8FBC8F698D7A8D8B8D59
:101420009C8D20E030E04AE755E40E941F02DC0179
:10143000CB018D8B9E8BAF8BB88F6D897E898F8909
:10144000988D20E030E040E85FE30E942504882387
:101450002CF481E090E09C8B8B8B3FC06D897E8962
:101460008F89988D20E03FEF4FE757E40E94C50336
:1014700018164CF5698D7A8D8B8D9C8D20E030E0AF
:1014800040E251E40E941F02DC01CB01BC01CD010E
:101490000E944900DC01CB019C8B8B8B0FC080E943
:1014A00091E09A8B898B89899A890197F1F79A8BB8
:1014B000898B8B899C8901979C8B8B8B8B899C89D1
:1014C000009769F719C06D897E898F89988D0E9470
:1014D0004900DC01CB019C8B8B8B8B899C89988B81
:1014E0008F878F8598890197F1F7988B8F8704C034
:1014F0008AAD833009F06DCF8AAD833009F07EC0AC
:1015000085E591E00E9466160E94321A8AEB90E00F
:101510000E94661680E090E0AAEFB4E48B879C8777
:10152000AD87BE876B857C858D859E8520E030E00C
:101530004AE755E40E941F02DC01CB018F839887A4
:10154000A987BA876F81788589859A8520E030E000
:1015500040E85FE30E94250488232CF481E090E0BA
:101560009E838D833FC06F81788589859A8520E031
:101570003FEF4FE757E40E94C50318164CF56B8503
:101580007C858D859E8520E030E040E251E40E941C
:101590001F02DC01CB01BC01CD010E944900DC012E
:1015A000CB019E838D830FC080E991E09C838B8368
:1015B0008B819C810197F1F79C838B838D819E8128
:1015C00001979E838D838D819E81009769F714C05A
:1015D0006F81788589859A850E944900DC01CB015D
:1015E0009E838D838D819E819A83898389819A814F
:1015F0000197F1F79A8389830E94941AED960FB6AA
:10160000F894DEBF0FBECDBFCF91DF910895DF9379
:10161000CF93CDB7DEB763970FB6F894DEBF0FBE9A
:10162000CDBF188A1F8617C08CE690E00E942A144E
:1016300086E992E069E070E00E94EE1583E291E0B5
:101640000E942A148DE892E069E070E00E94EE1595
:1016500088898F5F888B8889833031F788898330C8
:1016600009F07EC00E94321A8AEB90E00E94661652
:101670008AEB90E00E942A1480E090E0AAEFB4E4A4
:101680008B879C87AD87BE876B857C858D859E8586
:1016900020E030E04AE755E40E941F02DC01CB0164
:1016A0008F839887A987BA876F81788589859A857E
:1016B00020E030E040E85FE30E94250488232CF41A
:1016C00081E090E09E838D833FC06F81788589851E
:1016D0009A8520E03FEF4FE757E40E94C5031816B4
:1016E0004CF56B857C858D859E8520E030E040E261
:1016F00051E40E941F02DC01CB01BC01CD010E941C
:101700004900DC01CB019E838D830FC080E991E00D
:101710009C838B838B819C810197F1F79C838B83C6
:101720008D819E8101979E838D838D819E810097FF
:1017300069F714C06F81788589859A850E94490070
:10174000DC01CB019E838D838D819E819A83898369
:1017500089819A810197F1F79A8389830E94941A6B
:1017600063960FB6F894DEBF0FBECDBFCF91DF9169
:101770000895DF93CF93CDB7DEB70E949F160E94E6
:101780005216882319F00E94B00802C00E94070B6D
:10179000CF91DF910895DF93CF93CDB7DEB70E944D
:1017A0000C0CCF91DF910895DF93CF93CDB7DEB7C7
:1017B0000E94190C8AE50E942C0C0E94230C81E0E7
:1017C00090E09093880280938702CF91DF910895F3
:1017D000DF93CF93CDB7DEB70E94190C80E00E9453
:1017E0002C0C0E94230C1092880210928702CF9139
:1017F000DF910895DF93CF93CDB7DEB78091870255
:1018000090918802009719F00E94E80B02C00E9494
:10181000D40BCF91DF910895DF93CF93CDB7DEB78F
:1018200083E00E94CF1B82E30E94521CCF91DF9184
:101830000895DF93CF93CDB7DEB783E00E94E31B1B
:10184000CF91DF910895DF93CF93CDB7DEB70E949C
:10185000F51BCF91DF910895DF93CF9300D000D097
:1018600000D0CDB7DEB78E838E81882F90E0AA2777
:1018700097FDA095BA2FBC01CD010E945504DC0153
:10188000CB01BC01CD0124E330E847EB5BE30E94D0
:101890001F02DC01CB01BC01CD0120E030E040E8BB
:1018A0005FE30E94F201DC01CB019C01AD0160E02D
:1018B00070E080E89FE30E941903DC01CB018A837A
:1018C0009B83AC83BD836A817B818C819D8120E079
:1018D00030E048E452E40E941903DC01CB01BC0172
:1018E000CD0120E030E048EC52E40E941F02DC0110
:1018F000CB01BC01CD010E944900DC01CB018983F1
:1019000089810E94031C26960FB6F894DEBF0FBE95
:10191000CDBFCF91DF910895DF93CF93CDB7DEB7E1
:1019200081E061E041E00E942C2081E062E041E042
:101930000E942C2081E063E041E00E942C2080E0A6
:1019400064E041E00E942C2080E065E041E00E94DC
:101950002C2080E066E041E00E942C2080E067E0DF
:1019600041E00E942C20CF91DF910895DF93CF9327
:10197000CDB7DEB7E3970FB6F894DEBF0FBECDBF8D
:101980008BAB03C08BA984568BAB8BA98436D0F765
:101990008BA99AE0692F0E94D6239AE0692F0E94B2
:1019A000D623892F8295807F8AAB8BA99AE0692FF5
:1019B0000E94D623892F8295807F89AB81E062E0E7
:1019C00041E00E940F2181E061E040E00E940F2190
:1019D00080E06AA94FE00E94F22180E090E0AAEF47
:1019E000B3E48DA79EA7AFA7B8AB6DA57EA58FA5C5
:1019F00098A92BEA3AEA4AEA50E40E941F02DC0165
:101A0000CB0189A79AA7ABA7BCA769A57AA58BA587
:101A10009CA520E030E040E85FE30E942504882395
:101A20001CF481E088A791C069A57AA58BA59CA527
:101A300020E030E04FE753E40E94C50318160CF095
:101A40007BC06DA57EA58FA598A920E030E04AE770
:101A500054E40E941903DC01CB018CA39DA3AEA327
:101A6000BFA36CA17DA18EA19FA120E030E04AE739
:101A700055E40E941F02DC01CB0188A399A3AAA30D
:101A8000BBA368A179A18AA19BA120E030E040E836
:101A90005FE30E94250488232CF481E090E09F8F6F
:101AA0008E8F3FC068A179A18AA19BA120E03FEF62
:101AB0004FE757E40E94C50318164CF56CA17DA1B1
:101AC0008EA19FA120E030E040E251E40E941F027D
:101AD000DC01CB01BC01CD010E944900DC01CB013E
:101AE0009F8F8E8F0FC080E991E09D8F8C8F8C8DA2
:101AF0009D8D0197F1F79D8F8C8F8E8D9F8D019716
:101B00009F8F8E8F8E8D9F8D009769F724C068A15F
:101B100079A18AA19BA10E944900DC01CB019F8F82
:101B20008E8F8E8D9F8D9B8F8A8F8A8D9B8D019737
:101B3000F1F79B8F8A8F0FC069A57AA58BA59CA50D
:101B40000E944900DC01CB0188A788A5898F898D77
:101B50008A95F1F7898F81E062E040E00E940F21D1
:101B600081E061E041E00E940F2180E069A94FE03F
:101B70000E94F22180E090E0AAEFB3E48D8B9E8B6F
:101B8000AF8BB88F6D897E898F89988D2BEA3AEA61
:101B90004AEA50E40E941F02DC01CB01898B9A8B38
:101BA000AB8BBC8B69897A898B899C8920E030E07A
:101BB00040E85FE30E94250488231CF481E0888BC1
:101BC00091C069897A898B899C8920E030E04FE750
:101BD00053E40E94C50318160CF07BC06D897E8902
:101BE0008F89988D20E030E04AE754E40E94190381
:101BF000DC01CB018C879D87AE87BF876C857D8597
:101C00008E859F8520E030E04AE755E40E941F0260
:101C1000DC01CB0188879987AA87BB87688579858E
:101C20008A859B8520E030E040E85FE30E94250440
:101C300088232CF481E090E09F838E833FC06885E9
:101C400079858A859B8520E03FEF4FE757E40E9426
:101C5000C50318164CF56C857D858E859F8520E023
:101C600030E040E251E40E941F02DC01CB01BC01E4
:101C7000CD010E944900DC01CB019F838E830FC000
:101C800080E991E09D838C838C819D810197F1F7A0
:101C90009D838C838E819F8101979F838E838E810C
:101CA0009F81009769F724C0688579858A859B851F
:101CB0000E944900DC01CB019F838E838E819F812E
:101CC0009B838A838A819B810197F1F79B838A8317
:101CD0000FC069897A898B899C890E944900DC013F
:101CE000CB01888B8889898389818A95F1F78983DB
:101CF000E3960FB6F894DEBF0FBECDBFCF91DF9154
:101D00000895DF93CF9300D000D0CDB7DEB78B839B
:101D10006C831A82198208C08B810E94B60C89815B
:101D20009A8101969A8389838C81282F30E089815A
:101D30009A818217930780F30F900F900F900F9066
:101D4000CF91DF910895DF93CF93CDB7DEB781E0D8
:101D500064E041E00E942C2081E065E041E00E94C7
:101D60002C2081E066E041E00E942C2081E067E0C9
:101D700041E00E942C2080E060E041E00E942C20A5
:101D8000CF91DF910895DF93CF9300D00F92CDB71D
:101D9000DEB789838981282F30E03B832A838A81BB
:101DA0009B818230910521F12A813B8123303105CD
:101DB00054F48A819B81009789F02A813B812130EC
:101DC000310589F023C08A819B8183309105A9F078
:101DD0002A813B8124303105A9F018C081E061E0FF
:101DE0000E94C82213C081E062E00E94C8220EC097
:101DF00081E063E00E94C82209C081E064E00E94A3
:101E0000C82204C081E065E00E94C8220F900F90B4
:101E10000F90CF91DF910895DF93CF93CDB7DEB7C9
:101E200080E060E040E00E942C200E944523CF919A
:101E3000DF910895DF93CF9300D000D00F92CDB7FC
:101E4000DEB781E00E946123DC01CB01BC01CD0142
:101E500020E030E04AE754E40E941F02DC01CB019D
:101E60008A839B83AC83BD836A817B818C819D81C6
:101E700020E030E040E251E40E941903DC01CB0194
:101E8000BC01CD010E944900DC01CB01898389811D
:101E90000F900F900F900F900F90CF91DF910895BA
:101EA000DF93CF93CDB7DEB782E062E041E00E94DE
:101EB0002C2082E067E041E00E942C2083E063E078
:101EC00041E00E942C20CF91DF910895DF93CF93C2
:101ED00000D00F92CDB7DEB789838981282F30E0FB
:101EE0003B832A838A819B818130910579F02A8105
:101EF0003B812230310581F08A819B81009789F4F2
:101F000082E062E041E00E940F210BC082E067E0C6
:101F100041E00E940F2105C083E063E041E00E94A0
:101F20000F210F900F900F90CF91DF910895DF93C5
:101F3000CF9300D00F92CDB7DEB789838981282F48
:101F400030E03B832A838A819B818130910579F03F
:101F50002A813B812230310581F08A819B81009763
:101F600089F482E062E040E00E940F210BC082E031
:101F700067E040E00E940F2105C083E063E040E09D
:101F80000E940F210F900F900F90CF91DF91089535
:101F9000DF93CF9300D00F92CDB7DEB789838981CD
:101FA000282F30E03B832A838A819B8181309105F1
:101FB00071F02A813B812230310571F08A819B8149
:101FC000009771F482E062E00E94C82209C082E0BA
:101FD00067E00E94C82204C083E063E00E94C82238
:101FE0000F900F900F90CF91DF910895DF93CF93D3
:101FF000CDB7DEB7E4970FB6F894DEBF0FBECDBF06
:1020000081E061E041E00E942C2081E062E041E05B
:102010000E942C2081E063E041E00E942C2080E0BF
:1020200064E041E00E942C2080E065E041E00E94F5
:102030002C2080E066E041E00E942C2080E067E0F8
:1020400041E00E942C2081E062E040E00E940F21EC
:1020500080E090E0A0E7B1E489AB9AABABABBCAB5E
:1020600069A97AA98BA99CA920E030E04AE755E448
:102070000E941F02DC01CB018DA79EA7AFA7B8ABC2
:102080006DA57EA58FA598A920E030E040E85FE32C
:102090000E94250488232CF481E090E09CA78BA764
:1020A0003FC06DA57EA58FA598A920E03FEF4FE723
:1020B00057E40E94C50318164CF569A97AA98BA9A3
:1020C0009CA920E030E040E251E40E941F02DC01C4
:1020D000CB01BC01CD010E944900DC01CB019CA7D2
:1020E0008BA70FC080E991E09AA789A789A59AA537
:1020F0000197F1F79AA789A78BA59CA501979CA7A3
:102100008BA78BA59CA5009769F714C06DA57EA52C
:102110008FA598A90E944900DC01CB019CA78BA741
:102120008BA59CA598A78FA38FA198A50197F1F7E0
:1021300098A78FA383E00E944C1480E090E0A0EA6F
:10214000B0E48BA39CA3ADA3BEA36BA17CA18DA186
:102150009EA120E030E04AE755E40E941F02DC0126
:10216000CB018F8F98A3A9A3BAA36F8D78A189A162
:102170009AA120E030E040E85FE30E942504882334
:102180002CF481E090E09E8F8D8F3FC06F8D78A101
:1021900089A19AA120E03FEF4FE757E40E94C503D1
:1021A00018164CF56BA17CA18DA19EA120E030E01A
:1021B00040E251E40E941F02DC01CB01BC01CD01D1
:1021C0000E944900DC01CB019E8F8D8F0FC080E9FA
:1021D00091E09C8F8B8F8B8D9C8D0197F1F79C8F5D
:1021E0008B8F8D8D9E8D01979E8F8D8F8D8D9E8D6A
:1021F000009769F714C06F8D78A189A19AA10E94F8
:102200004900DC01CB019E8F8D8F8D8D9E8D9A8F25
:10221000898F898D9A8D0197F1F79A8F898F83E045
:102220000E944C1480E090E0A8ECB2E48D8B9E8B71
:10223000AF8BB88F6D897E898F89988D2BEA3AEAAA
:102240004AEA50E40E941F02DC01CB01898B9A8B81
:10225000AB8BBC8B69897A898B899C8920E030E0C3
:1022600040E85FE30E94250488231CF481E0888B0A
:1022700091C069897A898B899C8920E030E04FE799
:1022800053E40E94C50318160CF07BC06D897E894B
:102290008F89988D20E030E04AE754E40E941903CA
:1022A000DC01CB018C879D87AE87BF876C857D85E0
:1022B0008E859F8520E030E04AE755E40E941F02AA
:1022C000DC01CB0188879987AA87BB8768857985D8
:1022D0008A859B8520E030E040E85FE30E9425048A
:1022E00088232CF481E090E09F838E833FC0688533
:1022F00079858A859B8520E03FEF4FE757E40E9470
:10230000C50318164CF56C857D858E859F8520E06C
:1023100030E040E251E40E941F02DC01CB01BC012D
:10232000CD010E944900DC01CB019F838E830FC049
:1023300080E991E09D838C838C819D810197F1F7E9
:102340009D838C838E819F8101979F838E838E8155
:102350009F81009769F724C0688579858A859B8568
:102360000E944900DC01CB019F838E838E819F8177
:102370009B838A838A819B810197F1F79B838A8360
:102380000FC069897A898B899C890E944900DC0188
:10239000CB01888B8889898389818A95F1F7898324
:1023A00083E00E944C1482E00E944C1488E20E9458
:1023B0004C1481E00E944C148FE00E944C14E4966F
:1023C0000FB6F894DEBF0FBECDBFCF91DF91089559
:1023D000DF93CF93CDB7DEB72E970FB6F894DEBF5D
:1023E0000FBECDBF81E063E041E00E940F2180E09D
:1023F00090E0A0E0B0E48B879C87AD87BE876B85BB
:102400007C858D859E8520E030E04AE755E40E947A
:102410001F02DC01CB018F839887A987BA876F8160
:10242000788589859A8520E030E040E85FE30E9466
:10243000250488232CF481E090E09E838D833FC0A7
:102440006F81788589859A8520E03FEF4FE757E4D3
:102450000E94C50318164CF56B857C858D859E857D
:1024600020E030E040E251E40E941F02DC01CB0199
:10247000BC01CD010E944900DC01CB019E838D830C
:102480000FC080E991E09C838B838B819C810197B5
:10249000F1F79C838B838D819E8101979E838D8331
:1024A0008D819E81009769F714C06F817885898539
:1024B0009A850E944900DC01CB019E838D838D812A
:1024C0009E819A83898389819A810197F1F79A8302
:1024D000898381E063E040E00E940F212E960FB6D1
:1024E000F894DEBF0FBECDBFCF91DF910895DF938B
:1024F000CF9300D00F92CDB7DEB78B838B81807FD7
:102500008A838B818295807F898380E06A814FE016
:102510000E94F2210E94E81180E069814FE00E9450
:10252000F2210E94E8110F900F900F90CF91DF9150
:102530000895DF93CF930F92CDB7DEB7898389815A
:10254000882369F081E061E041E00E940F218981E8
:102550000E94771280918A028F5F80938A020F9087
:10256000CF91DF910895DF93CF93CDB7DEB7C856F3
:10257000D0400FB6F894DEBF0FBECDBFFE01EB59C1
:10258000FF4F60837183828393838DB79EB70897D3
:102590000FB6F8949EBF0FBE8DBF2DB73EB72F5F0D
:1025A0003F4FCE010196F901918380838AE691E045
:1025B000F90193838283FE01EB59FF4F8081918162
:1025C000A281B381F90184839583A683B7830E9496
:1025D0008F248DB79EB708960FB6F8949EBF0FBE96
:1025E0008DBFCE0101960E942A14C859DF4F0FB645
:1025F000F894DEBF0FBECDBFCF91DF910895DF937A
:10260000CF9300D000D00F92CDB7DEB76A837B8323
:102610008C839D836A817B818C819D810E9449008E
:10262000DC01CB0189838981882F90E0A0E0B0E0B4
:10263000BC01CD010E94B3128EE20E9499128981E1
:10264000882F90E0AA2797FDA095BA2FBC01CD0155
:102650000E9455049B01AC016A817B818C819D8124
:102660000E94C101DC01CB018A839B83AC83BD83C3
:102670006A817B818C819D8120E030E048EC52E4CE
:102680000E941F02DC01CB018A839B83AC83BD8344
:102690006A817B818C819D810E944900DC01CB0194
:1026A000BC01CD010E94B3120F900F900F900F90BC
:1026B0000F90CF91DF910895DF93CF93CDB7DEB721
:1026C00066970FB6F894DEBF0FBECDBF9B8B8A8B8B
:1026D0006C8B8A899B890E948624898B80918B02CE
:1026E000282F30E03E8B2D8B8D899E89813091057E
:1026F00031F02D893E892230310579F017C02091C3
:1027000089028989982F969588E0382F391B932F55
:10271000822F692F0E949C1409C02091890290E1A8
:102720008989981B822F692F0E949C148A899B8912
:10273000988B8F8780C0EF85F88980810E949912DD
:102740008C89813009F072C080E090E0A8ECB2E49E
:102750008B879C87AD87BE876B857C858D859E85A5
:1027600020E030E04AE755E40E941F02DC01CB0183
:102770008F839887A987BA876F81788589859A859D
:1027800020E030E040E85FE30E94250488232CF439
:1027900081E090E09E838D833FC06F81788589853D
:1027A0009A8520E03FEF4FE757E40E94C5031816D3
:1027B0004CF56B857C858D859E8520E030E040E280
:1027C00051E40E941F02DC01CB01BC01CD010E943B
:1027D0004900DC01CB019E838D830FC080E991E02D
:1027E0009C838B838B819C810197F1F79C838B83E6
:1027F0008D819E8101979E838D838D819E8100971F
:1028000069F714C06F81788589859A850E9449008F
:10281000DC01CB019E838D838D819E819A83898388
:1028200089819A810197F1F79A8389838F859889A5
:102830000196988B8F87EF85F8898081882309F02E
:102840007ACF66960FB6F894DEBF0FBECDBFCF919C
:10285000DF910895DF93CF9300D0CDB7DEB79A8391
:10286000898389819A8160E00E945C130F900F90A8
:10287000CF91DF910895DF93CF9300D0CDB7DEB72E
:102880009A83898389819A8161E00E945C130F9009
:102890000F90CF91DF910895DF93CF930F92CDB733
:1028A000DEB7898381E061E040E00E940F218981E9
:1028B0000E9477120F90CF91DF910895DF93CF930D
:1028C00000D000D0CDB7DEB78A838A81282F30E0D0
:1028D0003C832B838B819C81009731F02B813C8141
:1028E0002130310531F009C080E060E00E949C1485
:1028F00004C081E060E00E949C14198206C080E25E
:102900000E94991289818F5F898389818031B8F310
:102910000F900F900F900F90CF91DF910895DF935C
:10292000CF930F92CDB7DEB78983898180938B02D5
:102930000F90CF91DF910895DF93CF9300D000D017
:10294000CDB7DEB789836A838981282F30E03C8345
:102950002B838B819C81009731F02B813C8121302E
:10296000310531F009C08A8180580E944C1404C09E
:102970008A8180540E944C140F900F900F900F90FA
:10298000CF91DF910895DF93CF93CDB7DEB782E08B
:1029900063E040E00E942C2082E064E040E00E947E
:1029A0002C2082E065E040E00E942C2082E066E07E
:1029B00040E00E942C2081E064E041E00E942C2055
:1029C00081E065E041E00E942C2081E066E041E08A
:1029D0000E942C2081E067E041E00E942C2081E0F1
:1029E00064E041E00E940F2181E065E041E00E9447
:1029F0000F2181E066E041E00E940F2181E067E065
:102A000041E00E940F21CF91DF910895DF93CF9392
:102A10000F92CDB7DEB782E063E00E944E2288239A
:102A200091F482E064E00E944E22882361F482E007
:102A300065E00E944E22882331F482E066E00E9425
:102A40004E22882319F081E0898301C0198289818F
:102A50000F90CF91DF910895DF93CF9300D0CDB742
:102A6000DEB78FEF8A838FEF89830E9452158A83A6
:102A70008A810E94811589838A81482F50E089814B
:102A8000282F30E0CA01880F991F880F991F820FE5
:102A9000931FFC01EB58FD4F80810F900F90CF9159
:102AA000DF910895DF93CF930F92CDB7DEB782E029
:102AB00063E00E944E22882311F019821DC082E03B
:102AC00064E00E944E22882319F081E0898314C0BB
:102AD00082E065E00E944E22882319F082E089831B
:102AE0000BC082E066E00E944E22882319F083E04A
:102AF000898302C08FEF898389810F90CF91DF9105
:102B00000895DF93CF9300D0CDB7DEB7898381E0FE
:102B100064E040E00E940F210E945215982F8981A5
:102B2000981739F081E064E041E00E940F211A8299
:102B30004FC081E064E041E00E940F2181E065E048
:102B400040E00E940F210E945215982F898198170A
:102B500041F081E065E041E00E940F2181E08A833D
:102B600037C081E065E041E00E940F2181E066E02E
:102B700040E00E940F210E945215982F89819817DA
:102B800041F081E066E041E00E940F2182E08A830B
:102B90001FC081E066E041E00E940F2181E067E014
:102BA00040E00E940F210E945215982F89819817AA
:102BB00041F081E067E041E00E940F2183E08A83D9
:102BC00007C081E067E041E00E940F218FEF8A8318
:102BD0008A810F900F90CF91DF910895DF93CF936B
:102BE00000D000D00F92CDB7DEB79C838B836D836E
:102BF0000E9406158823E1F30E942C158A830E9407
:102C000006158823E1F7198218C08981282F30E042
:102C10008B819C81FC01E20FF31F8A8180830E94DB
:102C200006158823E1F30E942C158A830E9406155D
:102C30008823E1F789818F5F89838A818A3251F005
:102C40008981282F30E08D81882F90E00197281707
:102C50003907DCF28981282F30E08B819C81FC01CF
:102C6000E20FF31F10820F900F900F900F900F90B4
:102C7000CF91DF910895DF93CF93CDB7DEB760E8B2
:102C800075E280E090E00E94AD1A83E062E041E0EE
:102C90000E942C2083E063E040E00E942C20CF9132
:102CA000DF910895DF93CF930F92CDB7DEB783E026
:102CB00063E00E944E22882319F081E0898301C0DD
:102CC000198289810F90CF91DF910895DF93CF937F
:102CD00000D00F92CDB7DEB79A8389830E94521637
:102CE000882339F089819A810E944F1B81E08B8370
:102CF00001C01B828B810F900F900F90CF91DF91BD
:102D00000895DF93CF9300D000D0CDB7DEB79A837C
:102D100089836B830E945216882341F089819A81AE
:102D20006B810E94721B81E08C8301C01C828C81AC
:102D30000F900F900F900F90CF91DF910895DF9338
:102D4000CF93CDB7DEB72E970FB6F894DEBF0FBE88
:102D5000CDBF0E94BA1D80E090E0AAE7B4E48B8763
:102D60009C87AD87BE876B857C858D859E8520E0A1
:102D700030E04AE755E40E941F02DC01CB018F835B
:102D80009887A987BA876F81788589859A8520E099
:102D900030E040E85FE30E94250488232CF481E0C2
:102DA00090E09E838D833FC06F81788589859A8569
:102DB00020E03FEF4FE757E40E94C50318164CF59B
:102DC0006B857C858D859E8520E030E040E251E476
:102DD0000E941F02DC01CB01BC01CD010E94490011
:102DE000DC01CB019E838D830FC080E991E09C8341
:102DF0008B838B819C810197F1F79C838B838D81E1
:102E00009E8101979E838D838D819E81009769F7B6
:102E100014C06F81788589859A850E944900DC01FC
:102E2000CB019E838D838D819E819A838983898145
:102E30009A810197F1F79A8389832E960FB6F894B9
:102E4000DEBF0FBECDBFCF91DF910895DF93CF934B
:102E5000CDB7DEB761970FB6F894DEBF0FBECDBF1A
:102E60008F87688B498B0E94051E8F8580650E9425
:102E7000621E88890E94C81E89890E94C81E0E94FD
:102E80004D1E80E090E0A0EAB0E48B879C87AD8780
:102E9000BE876B857C858D859E8520E030E04AE786
:102EA00055E40E941F02DC01CB018F839887A9871C
:102EB000BA876F81788589859A8520E030E040E87F
:102EC0005FE30E94250488232CF481E090E09E8338
:102ED0008D833FC06F81788589859A8520E03FEF9B
:102EE0004FE757E40E94C50318164CF56B857C85A7
:102EF0008D859E8520E030E040E251E40E941F0273
:102F0000DC01CB01BC01CD010E944900DC01CB01F9
:102F10009E838D830FC080E991E09C838B838B819E
:102F20009C810197F1F79C838B838D819E81019712
:102F30009E838D838D819E81009769F714C06F8178
:102F4000788589859A850E944900DC01CB019E83A2
:102F50008D838D819E819A83898389819A8101974E
:102F6000F1F79A83898361960FB6F894DEBF0FBE9E
:102F7000CDBFCF91DF910895DF93CF93CDB7DEB76B
:102F800061970FB6F894DEBF0FBECDBF888B698BFB
:102F90001F860E94051E888980650E94621E89899D
:102FA0000E94C81E0E94291E888980650E94951E65
:102FB0008F85882F90E00E94EC1E0E944D1E80E0BD
:102FC00090E0A0EAB0E48B879C87AD87BE876B85D5
:102FD0007C858D859E8520E030E04AE755E40E949F
:102FE0001F02DC01CB018F839887A987BA876F8185
:102FF000788589859A8520E030E040E85FE30E948B
:10300000250488232CF481E090E09E838D833FC0CB
:103010006F81788589859A8520E03FEF4FE757E4F7
:103020000E94C50318164CF56B857C858D859E85A1
:1030300020E030E040E251E40E941F02DC01CB01BD
:10304000BC01CD010E944900DC01CB019E838D8330
:103050000FC080E991E09C838B838B819C810197D9
:10306000F1F79C838B838D819E8101979E838D8355
:103070008D819E81009769F714C06F81788589855D
:103080009A850E944900DC01CB019E838D838D814E
:103090009E819A83898389819A810197F1F79A8326
:1030A00089838F8561960FB6F894DEBF0FBECDBFC2
:1030B000CF91DF910895DF93CF9300D000D000D05F
:1030C000CDB7DEB78B836C835E834D838D819E810C
:1030D0009A83898310C0E981FA8190818B816C8108
:1030E000492F0E9426178C818F5F8C8389819A815A
:1030F00001969A838983E981FA818081882359F72F
:1031000026960FB6F894DEBF0FBECDBFCF91DF91EC
:1031100008950F931F93DF93CF9300D000D000D07A
:10312000CDB7DEB78A836B835D834C832E83198290
:1031300014C08981282F30E08C819D818C01020F81
:10314000131F8A816B810E94BC17F80180838B81D9
:103150008F5F8B8389818F5F89838981282F30E0FE
:103160008E81882F90E001972817390714F38E81FC
:10317000882F90E09C01215030408C819D81FC0182
:10318000E20FF31F108226960FB6F894DEBF0FBE33
:10319000CDBFCF91DF911F910F910895DF93CF9312
:1031A000CDB7DEB760970FB6F894DEBF0FBECDBFC8
:1031B0009F838E8368872DB73EB7388B2F878DB757
:1031C0009EB79A87898781E08B838885882F90E0D6
:1031D0002DB73EB7281B390B0FB6F8943EBF0FBE74
:1031E0002DBF8DB79EB701969E878D878D859E8555
:1031F00000969E878D872D853E853D832C838B8110
:103200008A838A81883020F519822C813D818A81C8
:103210006981A90128850E9489182C813D818E81B0
:103220009F81B9010E947D24009769F48A81882FCB
:1032300090E0382F22278981882F90E0822B932BD2
:103240009C878B8707C089819885890F8983DDCF0B
:103250001C861B8689859A850FB6F8949EBF0FBE83
:103260008DBF8B859C852F8538890FB6F8943EBF1E
:103270000FBE2DBF60960FB6F894DEBF0FBECDBF58
:10328000CF91DF910895DF93CF9300D00F92CDB708
:10329000DEB789838981282F30E03B832A838A81A6
:1032A0009B81009731F02A813B8121303105B1F0BB
:1032B00029C083E064E041E00E942C2083E064E0C8
:1032C00040E00E940F2182E063E041E00E942C2058
:1032D00082E064E041E00E942C2014C083E065E0BD
:1032E00041E00E942C2083E065E040E00E940F2135
:1032F00082E065E041E00E942C2082E066E041E04F
:103300000E942C200F900F900F90CF91DF91089585
:10331000DF93CF93CDB7DEB728970FB6F894DEBF13
:103320000FBECDBF89836A838981282F30E038871B
:103330002F838F819885009731F02F813885213038
:10334000310559F153C083E064E041E00E940F2150
:103350008A81282F30E03E832D838D819E810097C6
:1033600031F02D813E812130310561F03FC082E096
:1033700063E041E00E940F2182E064E040E00E94AF
:103380000F2134C082E063E040E00E940F2182E020
:1033900064E041E00E940F2129C083E065E041E044
:1033A0000E940F218A81282F30E03C832B838B8160
:1033B0009C81009731F02B813C812130310561F0F7
:1033C00015C082E065E041E00E940F2182E066E0E6
:1033D00040E00E940F210AC082E065E040E00E94C8
:1033E0000F2182E066E041E00E940F2128960FB68F
:1033F000F894DEBF0FBECDBFCF91DF910895DF936C
:10340000CF9300D00F92CDB7DEB789838981282F63
:1034100030E03B832A838A819B81009731F02A81A7
:103420003B812130310539F00BC083E064E040E09E
:103430000E940F2105C083E065E040E00E940F215B
:103440000F900F900F90CF91DF910895DF93CF935E
:10345000CDB7DEB780E063E041E00E942C20CF9141
:10346000DF910895DF93CF93CDB7DEB780E063E0BF
:1034700041E00E940F21CF91DF910895DF93CF9318
:10348000CDB7DEB780E063E040E00E940F21CF912E
:10349000DF910895DF93CF93CDB7DEB781E060E091
:1034A00040E00E942C2083E066E040E00E942C2057
:1034B00083E062E040E00E942C20CF91DF910895EC
:1034C000DF93CF9300D000D0CDB7DEB78A831982C7
:1034D0008A81282F30E03C832B838B819C81813033
:1034E000910579F02B813C812230310581F08B816F
:1034F0009C81009789F481E060E00E944E228983DC
:103500000BC083E066E00E944E22898305C083E001
:1035100062E00E944E22898389810F900F900F9064
:103520000F90CF91DF910895DF93CF93CDB7DEB7A2
:10353000E1E4F0E08EE08083CF91DF910895DF93A6
:10354000CF93CDB7DEB7E1E4F0E088E18083E1E43A
:10355000F0E01082CF91DF910895DF93CF93CDB744
:10356000DEB728970FB6F894DEBF0FBECDBF6D83D0
:103570007E838F839887AAE2B0E0EAE2F0E0808160
:1035800088618C938D819E81AF81B885880F991F4A
:10359000AA1FBB1F880F991FAA1FBB1F880F991F47
:1035A000AA1FBB1F880F991FAA1FBB1F9C01AD013B
:1035B00080E094E2A4EFB0E0BC01CD010E940924B8
:1035C000DA01C9010197A109B10989839A83AB8303
:1035D000BC8320E430E0E0E4F0E0408189819A811E
:1035E000AB81BC81892F9A2FAB2FBB27842BF9018C
:1035F0008083A9E2B0E0E9E2F0E090818981892B43
:103600008C93A0E4B0E0E0E4F0E0808186688C93E5
:1036100028960FB6F894DEBF0FBECDBFCF91DF91D5
:103620000895DF93CF930F92CDB7DEB7EBE2F0E0D2
:103630008081869586958695882F90E08170907020
:10364000882319F081E00E94C80FEBE2F0E080814E
:1036500088232CF4ECE2F0E08081898301C0198298
:1036600089810F90CF91DF910895DF93CF930F92CF
:10367000CDB7DEB78983EBE2F0E080818295869555
:103680008770882F90E0817090700097A1F3ECE232
:10369000F0E0898180830F90CF91DF910895DF93CF
:1036A000CF9300D000D0CDB7DEB79C838B838B81C6
:1036B0009C819A8389830AC0E981FA8180810E9472
:1036C000351B89819A8101969A838983E981FA81E0
:1036D0008081882389F70F900F900F900F90CF91E2
:1036E000DF910895DF93CF9300D000D00F92CDB734
:1036F000DEB79C838B836D830E94111B8A831982A2
:1037000010C08981282F30E08B819C81FC01E20F61
:10371000F31F8A8180830E94111B8A8389818F5FB6
:1037200089838A818A3081F08A818D3069F08A812B
:10373000882351F08981282F30E08D81882F90E0F7
:10374000019728173907ECF28981282F30E08B8107
:103750009C81FC01E20FF31F10820F900F900F90DD
:103760000F900F90CF91DF910895DF93CF93CDB756
:10377000DEB7EFE4F0E082E88083EEE4F0E088E199
:103780008083ECE4F0E01082EDE4F0E0108283E06E
:1037900065E041E00E942C20CF91DF910895DF93F6
:1037A000CF930F92CDB7DEB789830E949B1F89818B
:1037B000882F90E08330910511F40E94B51B0F9083
:1037C000CF91DF910895DF93CF930F92CDB7DEB7FE
:1037D0008983AEE4B0E0EEE4F0E090818981892B4A
:1037E0008C930F90CF91DF910895DF93CF93CDB756
:1037F000DEB7AEE4B0E0EEE4F0E08081887F8C9349
:10380000CF91DF910895EF92FF920F931F93DF9373
:10381000CF9300D00F92CDB7DEB78B8380918C020F
:10382000882F90E0AA2797FDA095BA2FBC01CD0163
:103830000E9455047B018C018B81882F90E0A0E0D1
:10384000B0E0BC01CD010E940705DC01CB01BC0149
:10385000CD0120E030E048EC52E40E941903DC0185
:10386000CB019C01AD01C801B7010E941F02DC0120
:10387000CB01BC01CD010E944900DC01CB019A8340
:103880008983EAE4F0E089818083EBE4F0E0108250
:103890000F900F900F90CF91DF911F910F91FF909C
:1038A000EF900895DF93CF930F92CDB7DEB7898362
:1038B0008981882F90E000249695879507949695A6
:1038C00087950794982F802D9C01442737FD4095BC
:1038D000542F80E094E2A4EFB0E0BC01CD010E943F
:1038E0002B24DA01C901815080938C02E6E4F0E0D8
:1038F00080918C028083E7E4F0E010820F90CF91FA
:10390000DF910895DF93CF93CDB7DEB7A3E5B0E0A5
:10391000E3E5F0E0808180648C93A3E5B0E0E3E52B
:10392000F0E0808180628C9381E063E041E00E945E
:103930002C20CF91DF910895DF93CF93CDB7DEB7E1
:10394000A9E5B0E0E9E5F0E0808181608C93CF915A
:10395000DF910895DF93CF93CDB7DEB7A9E5B0E04F
:10396000E9E5F0E0808182608C93A3E5B0E0E3E5D7
:10397000F0E0808188608C93CF91DF910895DF9390
:10398000CF93CDB7DEB7A3E5B0E0E3E5F0E080810B
:1039900080648C93A3E5B0E0E3E5F0E0808188608B
:1039A0008C93A3E5B0E0E3E5F0E0808180628C9346
:1039B00081E063E041E00E942C20CF91DF910895E7
:1039C000DF93CF9300D00F92CDB7DEB789830E94EB
:1039D0009B1F8981282F30E03B832A838A819B812A
:1039E00081309105C1F02A813B81223031052CF4D0
:1039F0008A819B81009761F016C02A813B81223029
:103A0000310561F08A819B818330910551F00BC0B3
:103A10000E949C1C08C00E94821C05C00E94AA1C17
:103A200002C00E94BF1C0F900F900F90CF91DF91AA
:103A30000895DF93CF930F92CDB7DEB78983A2E5C8
:103A4000B0E0E2E5F0E090818981892B8C930F90C2
:103A5000CF91DF910895DF93CF9300D000D00F92E4
:103A6000CDB7DEB79D838C83E3E5F0E0808187707E
:103A70008B838B81282F30E081E090E0B9010E9498
:103A8000F623CB018A838A81282F30E08C819D81A7
:103A9000B9010E94E223CB018195898389810E942B
:103AA000191D0F900F900F900F900F90CF91DF91F5
:103AB0000895DF93CF930F92CDB7DEB78983A3E547
:103AC000B0E0E3E5F0E090818981892B8C930F9041
:103AD000CF91DF910895DF93CF93CDB7DEB7A3E504
:103AE000B0E0E3E5F0E08081887F8C93CF91DF91B7
:103AF00008950F931F93DF93CF930F92CDB7DEB747
:103B000089830CE510E08981882F90E0A0E0B0E087
:103B1000BC01CD010E940705DC01CB01BC01CD0138
:103B200020E030E048EC52E40E941903DC01CB01B4
:103B3000BC01CD0120E030E04FE753E40E941F02BA
:103B4000DC01CB01BC01CD010E944900DC01CB01AD
:103B5000F80180830F90CF91DF911F910F9108950D
:103B6000DF93CF930F92CDB7DEB789830F90CF91BC
:103B7000DF910895DF93CF93CDB7DEB7A1E2B0E038
:103B8000E1E2F0E080818E7F8C93A1E2B0E0E1E29F
:103B9000F0E080818D7F8C93E0E2F0E08CE0808328
:103BA000A6E5B0E0E6E5F0E0808180648C93A6E5D0
:103BB000B0E0E6E5F0E0808184608C93CF91DF9106
:103BC0000895DF93CF930F92CDB7DEB78983E2E2FA
:103BD000F0E08981880F8083A2E2B0E0E2E2F0E0C9
:103BE00080818E7F8C93A6E5B0E0E6E5F0E08081F1
:103BF00080648C93A6E5B0E0E6E5F0E08081846027
:103C00008C930F90CF91DF910895DF93CF93CDB731
:103C1000DEB7A6E5B0E0E6E5F0E0808180628C9357
:103C2000A6E5B0E0E6E5F0E0808180688C93E6E50B
:103C3000F0E080818823DCF7E1E2F0E08081882FEA
:103C400090E0887F907088309105B1F7CF91DF9137
:103C50000895DF93CF93CDB7DEB7A6E5B0E0E6E5F4
:103C6000F0E0808180628C93A6E5B0E0E6E5F0E0CC
:103C7000808180688C93E6E5F0E080818823DCF722
:103C8000E1E2F0E08081882F90E0887F90708031C1
:103C90009105B1F7CF91DF910895DF93CF93CDB721
:103CA000DEB7A6E5B0E0E6E5F0E0808180618C93C8
:103CB000A6E5B0E0E6E5F0E0808180688C93CF91E6
:103CC000DF910895DF93CF930F92CDB7DEB789834D
:103CD000E3E2F0E08981880F8083A3E2B0E0E3E2D1
:103CE000F0E080818E7F8C93A6E5B0E0E6E5F0E021
:103CF00080818F7D8C93A6E5B0E0E6E5F0E08081E1
:103D000080688C93E6E5F0E080818823DCF7E1E2CF
:103D1000F0E08081882F90E0887F90708831910555
:103D2000B1F70F90CF91DF910895DF93CF930F926A
:103D3000CDB7DEB78983E3E2F0E08981880F808325
:103D4000A3E2B0E0E3E2F0E0808181608C93A6E53D
:103D5000B0E0E6E5F0E080818F7D8C93A6E5B0E0F1
:103D6000E6E5F0E0808180688C93E6E5F0E0808114
:103D70008823DCF7E1E2F0E08081882F90E0887F03
:103D8000907080349105B1F70F90CF91DF91089535
:103D9000DF93CF930F92CDB7DEB78983E3E2F0E0F4
:103DA00089818083A6E5B0E0E6E5F0E08081806867
:103DB0008C93E6E5F0E080818823DCF7E1E2F0E037
:103DC0008081882F90E0887F907088329105B1F7CC
:103DD0000F90CF91DF910895DF93CF9300D0CDB7AF
:103DE000DEB79A83898389819A810097E1F0A6E5FD
:103DF000B0E0E6E5F0E0808180688C93E6E5F0E0F5
:103E000080818823DCF7E1E2F0E08081882F90E078
:103E1000887F907080359105B1F7E3E2F0E0808112
:103E2000E981FA8180830F900F90CF91DF910895FF
:103E3000DF93CF93CDB7DEB781E064E041E00E942D
:103E40002C2081E064E041E00E940F2181E065E0E8
:103E500041E00E942C2081E067E041E00E942C209C
:103E6000ADE2B0E0EDE2F0E0808180648C93ADE201
:103E7000B0E0EDE2F0E0808180618C93ADE2B0E0F3
:103E8000EDE2F0E0808181608C93CF91DF91089525
:103E9000DF93CF93CDB7DEB781E066E041E00E94CB
:103EA0002C20ADE2B0E0EDE2F0E0808180648C9304
:103EB000CF91DF910895DF93CF930F92CDB7DEB707
:103EC0008983EFE2F0E089818083EFE2F0E0808196
:103ED0000F90CF91DF910895DF93CF930F92CDB7DD
:103EE000DEB7898389810E945B1F0F90CF91DF919C
:103EF0000895DF93CF93CDB7DEB780E00E945B1FBC
:103F0000CF91DF910895DF93CF930F92CDB7DEB7B6
:103F10008983EFE2F0E0898180830F90CF91DF9178
:103F20000895DF93CF93CDB7DEB780E00E945B1F8B
:103F3000CF91DF910895DF93CF93CDB7DEB7AFE593
:103F4000B0E0EFE5F0E0808180688C93CF91DF9165
:103F50000895DF93CF93CDB7DEB7AFE5B0E0EFE5DF
:103F6000F0E080818F778C93CF91DF910895DF937C
:103F7000CF9300D000D0CDB7DEB789836A83ABE59D
:103F8000B0E0EBE5F0E08081482F8981282F30E018
:103F900081E090E002C0880F991F2A95E2F7842BF8
:103FA0008C938981282F30E03C832B838B819C81EB
:103FB0008630910559F02B813C812730310579F00D
:103FC0008B819C8185309105D1F021C0A5E5B0E0C1
:103FD000E5E5F0E090818A81892B8C9318C0A5E5F6
:103FE000B0E0E5E5F0E08081282F8A81882F90E01D
:103FF000880F991F880F991F822B8C9308C0A4E506
:10400000B0E0E4E5F0E090818A81892B8C930F90F9
:104010000F900F900F90CF91DF910895DF93CF9382
:104020000F92CDB7DEB78983ABE5B0E0EBE5F0E00A
:104030008081482F8981282F30E081E090E0022E96
:1040400002C0880F991F0A94E2F7809584238C930D
:104050000F90CF91DF910895DF93CF9300D000D0E0
:104060000F92CDB7DEB789836A834B838981282F6E
:1040700030E03D832C838C819D818130910509F452
:1040800043C02C813D81223031052CF48C819D81EF
:10409000009771F0BCC02C813D812230310509F4BC
:1040A0005FC08C819D818330910509F485C0AFC0CC
:1040B0008B818823A9F4AAE3B0E0EAE3F0E08081F1
:1040C000482F8A81282F30E081E090E0022E02C044
:1040D000880F991F0A94E2F7809584238C9397C0E8
:1040E000AAE3B0E0EAE3F0E08081482F8A81282F3C
:1040F00030E081E090E0022E02C0880F991F0A9400
:10410000E2F7842B8C9383C08B818823A9F4A7E3E7
:10411000B0E0E7E3F0E08081482F8A81282F30E08B
:1041200081E090E0022E02C0880F991F0A94E2F706
:10413000809584238C936BC0A7E3B0E0E7E3F0E0C5
:104140008081482F8A81282F30E081E090E0022E84
:1041500002C0880F991F0A94E2F7842B8C9357C0F2
:104160008B818823A9F4A4E3B0E0E4E3F0E080814C
:10417000482F8A81282F30E081E090E0022E02C093
:10418000880F991F0A94E2F7809584238C933FC08F
:10419000A4E3B0E0E4E3F0E08081482F8A81282F97
:1041A00030E081E090E0022E02C0880F991F0A944F
:1041B000E2F7842B8C932BC08B818823A9F4A1E395
:1041C000B0E0E1E3F0E08081482F8A81282F30E0E1
:1041D00081E090E0022E02C0880F991F0A94E2F756
:1041E000809584238C9313C0A1E3B0E0E1E3F0E079
:1041F0008081482F8A81282F30E081E090E0022ED4
:1042000002C0880F991F0A94E2F7842B8C930F90B9
:104210000F900F900F900F90CF91DF910895DF9343
:10422000CF9300D000D00F92CDB7DEB789836A83D9
:104230004B838981282F30E03D832C838C819D81A5
:104240008130910509F443C02C813D812230310534
:104250002CF48C819D81009771F0BCC02C813D8134
:104260002230310509F45FC08C819D818330910536
:1042700009F485C0AFC08B818130A1F4ABE3B0E01D
:10428000EBE3F0E08081482F8A81282F30E081E045
:1042900090E0022E02C0880F991F0A94E2F7842B47
:1042A0008C9398C0ABE3B0E0EBE3F0E08081482F63
:1042B0008A81282F30E081E090E0022E02C0880F32
:1042C000991F0A94E2F7809584238C9383C08B8195
:1042D0008130A1F4A8E3B0E0E8E3F0E08081482F6A
:1042E0008A81282F30E081E090E0022E02C0880F02
:1042F000991F0A94E2F7842B8C936CC0A8E3B0E07A
:10430000E8E3F0E08081482F8A81282F30E081E0C7
:1043100090E0022E02C0880F991F0A94E2F7809560
:1043200084238C9357C08B818130A1F4A5E3B0E046
:10433000E5E3F0E08081482F8A81282F30E081E09A
:1043400090E0022E02C0880F991F0A94E2F7842B96
:104350008C9340C0A5E3B0E0E5E3F0E08081482F16
:104360008A81282F30E081E090E0022E02C0880F81
:10437000991F0A94E2F7809584238C932BC08B813C
:104380008130A1F4A2E3B0E0E2E3F0E08081482FC5
:104390008A81282F30E081E090E0022E02C0880F51
:1043A000991F0A94E2F7842B8C9314C0A2E3B0E027
:1043B000E2E3F0E08081482F8A81282F30E081E01D
:1043C00090E0022E02C0880F991F0A94E2F78095B0
:1043D00084238C930F900F900F900F900F90CF919C
:1043E000DF910895DF93CF9300D000D00F92CDB727
:1043F000DEB789836A834B838981282F30E03D8330
:104400002C838C819D818130910501F12C813D812E
:10441000223031052CF48C819D81009761F036C0EB
:104420002C813D8122303105E1F08C819D818330EA
:10443000910511F12BC0ABE3B0E0EBE3F0E090812C
:104440008B8198238A81892B8C9320C0A8E3B0E0CC
:10445000E8E3F0E090818B8198238A81892B8C930B
:1044600015C0A5E3B0E0E5E3F0E090818B819823EF
:104470008A81892B8C930AC0A2E3B0E0E2E3F0E0EA
:1044800090818B8198238A81892B8C930F900F9038
:104490000F900F900F90CF91DF910895DF93CF93FE
:1044A00000D000D00F92CDB7DEB78A836B8319821C
:1044B0008A81282F30E03D832C834C815D814130FF
:1044C000510541F18C819D818230910534F42C811C
:1044D0003D812115310561F052C04C815D81423032
:1044E000510551F18C819D8183309105B9F147C00F
:1044F000E9E3F0E08081282F30E08B81882F90E085
:10450000A90102C0559547958A95E2F7CA018170C5
:10451000898335C0E6E3F0E08081282F30E08B818D
:10452000882F90E0A90102C0559547958A95E2F73A
:10453000CA018170898323C0E3E3F0E08081282FE2
:1045400030E08B81882F90E0A90102C055954795F6
:104550008A95E2F7CA018170898311C0E0E3F0E037
:104560008081282F30E08B81882F90E0A90102C044
:10457000559547958A95E2F7CA01817089838981AB
:104580000F900F900F900F900F90CF91DF910895A3
:10459000DF93CF9300D000D0CDB7DEB789836A8395
:1045A0008981282F30E03C832B838B819C81813053
:1045B000910549F12B813C81223031052CF48B810E
:1045C0009C81009761F05AC02B813C8122303105DB
:1045D00071F18B819C8183309105E9F14FC0ABE390
:1045E000B0E0EBE3F0E08081482F8A81282F30E0B3
:1045F00081E090E0022E02C0880F991F0A94E2F732
:1046000084278C933BC0A8E3B0E0E8E3F0E080812E
:10461000482F8A81282F30E081E090E0022E02C0EE
:10462000880F991F0A94E2F784278C9327C0A5E38B
:10463000B0E0E5E3F0E08081482F8A81282F30E068
:1046400081E090E0022E02C0880F991F0A94E2F7E1
:1046500084278C9313C0A2E3B0E0E2E3F0E0808112
:10466000482F8A81282F30E081E090E0022E02C09E
:10467000880F991F0A94E2F784278C930F900F906C
:104680000F900F90CF91DF910895DF93CF93CDB727
:10469000DEB7A6E2B0E0E6E2F0E0808180688C93CD
:1046A000A6E2B0E0E6E2F0E0808187608C93A7E2CA
:1046B000B0E0E7E2F0E0808180648C93CF91DF91FD
:1046C0000895DF93CF93CDB7DEB727970FB6F89451
:1046D000DEBF0FBECDBF8F83A7E2B0E0E7E2F0E020
:1046E0008081887F8C93A7E2B0E0E7E2F0E09081E0
:1046F0008F81892B8C93A6E2B0E0E6E2F0E0808126
:1047000080648C93E6E2F0E0808182958F70882F40
:1047100090E0817090700097A9F3A6E2B0E0E6E225
:10472000F0E0808180618C93E4E2F0E08081282FCA
:1047300030E0E5E2F0E08081882F90E0982F882734
:10474000822B932B9E838D838D819E81CC01A0E053
:10475000B0E0BC01CD010E940705DC01CB01BC012A
:10476000CD012AE939E949E950E40E941F02DC0140
:10477000CB01BC01CD0120E030E04AE754E40E94C7
:104780001903DC01CB0189839A83AB83BC838981C4
:104790009A81AB81BC81BC01CD0127960FB6F894FC
:1047A000DEBF0FBECDBFCF91DF910895991B79E099
:1047B00004C0991F961708F0961B881F7A95C9F7B1
:1047C00080950895AA1BBB1B51E107C0AA1FBB1F00
:1047D000A617B70710F0A61BB70B881F991F5A958D
:1047E000A9F780959095BC01CD01089597FB092EFE
:1047F00007260AD077FD04D0E5DF06D000201AF4A2
:10480000709561957F4F0895F6F7909581959F4F2C
:104810000895A1E21A2EAA1BBB1BFD010DC0AA1F01
:10482000BB1FEE1FFF1FA217B307E407F50720F019
:10483000A21BB30BE40BF50B661F771F881F991F94
:104840001A9469F760957095809590959B01AC01DD
:10485000BD01CF01089597FB092E05260ED057FD07
:1048600004D0D7DF0AD0001C38F45095409530951D
:1048700021953F4F4F4F5F4F0895F6F790958095E4
:10488000709561957F4F8F4F9F4F08952F923F9264
:104890004F925F926F927F928F929F92AF92BF9250
:1048A000CF92DF92EF92FF920F931F93CF93DF93FC
:1048B000CDB7DEB7CA1BDB0B0FB6F894DEBF0FBE59
:1048C000CDBF09942A88398848885F846E847D84A6
:1048D0008C849B84AA84B984C884DF80EE80FD80A8
:1048E0000C811B81AA81B981CE0FD11D0FB6F8941E
:1048F000DEBF0FBECDBFED010895FB01DC018D9140
:10490000019080190110D9F3990B0895FC010190D1
:104910000020E9F7809590958E0F9F1F0895AEE0D7
:10492000B0E0E5E9F4E20C9454240D891E8986E098
:104930008C831A8309838FEF9FE79E838D839E016B
:10494000275E3F4FCE0101966F89788DA9010E94A5
:10495000B3242F813885020F131FF80110822E9681
:10496000E4E00C947024ABE0B0E0E9EBF4E20C94EA
:1049700046243C012B015A01FC01178216828381D7
:1049800081FD03C06FEF7FEFC6C19AE0892E1E0143
:104990000894211C311CF3012381F20123FD859130
:1049A00023FF81912F01882309F4B2C1853239F4A4
:1049B00023FD859123FF81912F01853229F490E019
:1049C000B3010E94A626E7CF982FFF24EE24992456
:1049D000FFE1FF15D0F09B3269F09C3228F4903251
:1049E00059F0933291F40EC09D3249F0903369F43E
:1049F00041E024C052E0F52A84E0F82A28C098E07B
:104A0000F92A25C0E0E1FE2A22C0F7FC29C0892F3F
:104A100080538A3070F4F6FE05C0989C902C1124C7
:104A2000980E15C0E89CE02C1124E80EF0E2FF2A55
:104A30000EC09E3229F4F6FC6BC140E4F42A07C094
:104A40009C3619F450E8F52A02C0983649F4F20170
:104A500023FD959123FF91912F01992309F0B8CF60
:104A6000892F8554833018F08052833038F444E025
:104A700050E0A40EB51E5FE359830FC0933631F0AA
:104A8000933779F0933509F056C020C0F501808145
:104A9000898342E050E0A40EB51E610101E010E000
:104AA00012C0F501C080D180F6FC03C06FEF7FEF2C
:104AB00002C0692D70E042E050E0A40EB51EC601B0
:104AC0000E949B268C015FE7F52214C0F501C0808F
:104AD000D180F6FC03C06FEF7FEF02C0692D70E05C
:104AE00042E050E0A40EB51EC6010E9490268C0143
:104AF00050E8F52AF3FE07C01AC080E290E0B30147
:104B00000E94A626EA948E2D90E008171907A8F3B4
:104B10000EC0F601F7FC8591F7FE81916F0190E0E0
:104B2000B3010E94A626E110EA940150104001153D
:104B3000110579F7EAC0943611F0993669F5F7FE58
:104B400008C0F501208131814281538184E090E0E9
:104B50000AC0F501808191819C01442737FD409571
:104B6000542F82E090E0A80EB91E9FE6F92257FF6D
:104B700009C050954095309521953F4F4F4F5F4F5D
:104B8000E0E8FE2ACA01B901A1012AE030E00E9452
:104B9000D226D82ED21840C0953729F41F2D1F7E5B
:104BA0002AE030E01DC01F2D197F9F3661F090373D
:104BB00020F4983509F0ACC00FC0903739F0983721
:104BC00009F0A6C004C028E030E00AC0106114FD5E
:104BD000146020E130E004C014FD166020E132E0F2
:104BE00017FF08C0F501608171818281938144E0E3
:104BF00050E008C0F50180819181BC0180E090E027
:104C000042E050E0A40EB51EA1010E94D226D82E8B
:104C1000D2188FE7F82EF122F6FE0BC05EEFF522D8
:104C2000D91438F4F4FE07C0F2FC05C08FEEF82268
:104C300002C01D2D01C0192DF4FE0DC0FE01ED0DA9
:104C4000F11D8081803319F499EEF92208C01F5FAD
:104C5000F2FE05C003C08F2D867809F01F5F0F2D6F
:104C6000F3FC14C0F0FE0FC01E1510F09D2C0BC0FD
:104C70009D2C9E0C911A1E2D06C080E290E0B3017F
:104C80000E94A6261F5F1E15C0F304C01E1510F457
:104C9000E11A01C0EE2404FF0FC080E390E0B301ED
:104CA0000E94A62602FF1DC001FD03C088E790E018
:104CB0000EC088E590E00BC0802F867891F001FF50
:104CC00002C08BE201C080E2F7FC8DE290E0B3010C
:104CD0000E94A62606C080E390E0B3010E94A626AB
:104CE0009A94D914C0F3DA94F101ED0DF11D80818D
:104CF00090E0B3010E94A626DD20A9F706C080E25D
:104D000090E0B3010E94A626EA94EE20C1F743CEBC
:104D1000F30166817781CB012B96E2E10C9462244A
:104D2000FC010590615070400110D8F78095909576
:104D30008E0F9F1F0895FC0161507040019001107B
:104D4000D8F7809590958E0F9F1F08950F931F930E
:104D5000CF93DF938C01EB018B8181FF1BC082FF1E
:104D60000DC02E813F818C819D812817390764F405
:104D7000E881F9810193F983E88306C0E885F98524
:104D8000802F0995892B31F48E819F8101969F8315
:104D90008E8302C00FEF1FEFC801DF91CF911F91EB
:104DA0000F910895FA01AA27283051F1203181F19D
:104DB000E8946F936E7F6E5F7F4F8F4F9F4FAF4F23
:104DC000B1E03ED0B4E03CD0670F781F891F9A1F36
:104DD000A11D680F791F8A1F911DA11D6A0F711DEA
:104DE000811D911DA11D20D009F468943F912AE0F6
:104DF000269F11243019305D3193DEF6CF010895DE
:104E0000462F4770405D4193B3E00FD0C9F7F6CF0E
:104E1000462F4F70405D4A3318F0495D31FD4052D6
:104E2000419302D0A9F7EACFB4E0A695979587956C
:104E300077956795BA95C9F700976105710508954B
:104E40009B01AC010A2E06945795479537952795F7
:104E5000BA95C9F7620F731F841F951FA01D08958F
:044E6000F894FFCFF4
:104E6400310032003300340035003700456E74657C
:104E74007220557365726E616D652E2E2E0055730A
:104E840065726E616D65206E6F7420666F756E64F9
:104E94002E2E2E20446F20796F752077616E74203A
:104EA400746F2072656769737465723F2028796531
:104EB400732F6E6F290079657300546865207072D2
:104EC4006F6772616D2077696C6C207265736574AD
:104ED40020696E2033207365636F6E64732E0055F2
:104EE4007365726E616D652052656769737465726E
:104EF400656420616E64206C6F6767656420696E09
:104F04002E2E2E004D6178206E756D626572206FB5
:104F14006620757365727320726567697374657250
:104F2400656400456E7465722050617373776F72A7
:104F3400642E2E2E0057726F6E6720506173737744
:104F44006F72642E2E2E004C6F6767696E6720693E
:104F54006E2E2E2E004D6178206E756D6265722066
:104F64006F6620747269616C730025640000000030
:104F74000000000000000102020303030304040410
:104F840004040404040505050505050505050505D2
:104F940005050505050606060606060606060606B2
:104FA400060606060606060606060606060606069D
:104FB4000606060606070707070707070707070782
:104FC400070707070707070707070707070707076D
:104FD400070707070707070707070707070707075D
:104FE400070707070707070707070707070707074D
:104FF4000707070707080808080808080808080832
:10500400080808080808080808080808080808081C
:10501400080808080808080808080808080808080C
:1050240008080808080808080808080808080808FC
:1050340008080808080808080808080808080808EC
:1050440008080808080808080808080808080808DC
:1050540008080808080808080808080808080808CC
:1050640008080808080808080808080808080808BC
:1050740008080808083132334134353642373839A4
:06508400432A3023440022
:00000001FF
